:100000000C94C6020C94E3020C94E3020C94E302F9
:100010000C94E3020C94E3020C94E3020C94E302CC
:100020000C94E3020C94E3020C94A9300C949131EB
:100030000C945E300C94E3020C94E3020C94E30203
:100040000C94E3020C94E3020C94E3020C94E3029C
:100050000C94E3020C9485300C94E3020C94E302BC
:100060000C94E3020C94E3020C94E3020C94E3027C
:100070000C94E3020C94E3020C94E3020C94E3026C
:100080000C94E3020C94E3020C94E3020C94E3025C
:100090000C94E3020C94E3020C94E3020C94E3024C
:1000A0000C94E3020C94E3020C94E30205010902B0
:1000B000A10185020901A1000509190129081500FE
:1000C0002501950875018102050109300931158165
:1000D000257F95027508810609381581257F9501D0
:1000E00075088106050C0A38021581257F95017572
:1000F000088106C0C005010980A101850319012AF4
:10010000B700150126B700950175108100C0050CD8
:100110000901A101850419012AA002150126A002E6
:10012000950175108100C005010906A1018506052C
:100130000719E029E71500250195087501810205D9
:1001400007190029EF1500250195F07501810205B9
:10015000081901290595057501910295017503910D
:1001600001C00660FF0961A1010962150026FF00B8
:100170009520750881020963150026FF00952075FA
:10018000089102C005010906A101050719E029E748
:1001900015002501950875018102950175088101F9
:1001A0000507190029FF150026FF0095067508812F
:1001B000000508190129051500250195057501910E
:1001C00002950175039101C00000000000000000CD
:1001D000000000000000000000000000000000001F
:1001E0000000000000000000000000007E0F00D4AE
:1001F000FFFFFFC7000000780000000000000000C3
:100200002A2B280000000000000000000000000071
:1002100000000029000000002C1E3420212224347C
:100220002627252E362D3738271E1F20212223244E
:1002300025263333362E37381F0405060708090AEA
:100240000B0C0D0E0F101112131415161718191A86
:100250001B1C1D2F3130232D350405060708090A04
:100260000B0C0D0E0F101112131415161718191A66
:100270001B1C1D2F3130354C09025B00030100A00F
:10028000FA09040000010301010009211101000124
:10029000224400070581030800010904010002034C
:1002A000000000092111010001222200070582033C
:1002B00020000107050303200001090402000103D7
:1002C00000000009211101000122B6000705840386
:1002D0002000011201000200000008EDFE7812006B
:1002E00001010203011C037600690061006C003A01
:1002F00000660036003400630032006200330063A1
:100300000000001603740061006200650073006362
:10031000006F005F003400380000001A03690073AA
:100320000061006100630020007400750072006EBF
:100330000065007200000004030904270026002560
:1003400000240023002200210020001F001E0013B3
:100350000012000C0018001C001700150008001AFD
:100360000014000F000E000D000B000A000900072A
:1003700000160004000000280052001000110005C3
:1003800000190006001B001D00E1004F0051005045
:10039000002C002C002C00E200E300E00000000133
:1003A00000010040059416AA160000020002003C5D
:1003B000059416AA1600000300010041059416AA30
:1003C0001600000400020026059416AA165E060513
:1003D00000010042059416AA16000006000200283B
:1003E000059416AA160000070002003E059416AAFE
:1003F0001600000800010043059416AA1600000923
:100400000002002A059416AA1667060A0002002CAC
:10041000059416AA1667060B0002002E059416AA6C
:100420001667060C00020030059416AA1667060D22
:1004300000020032059416AA1667060E0002003468
:10044000059416AA1667060F00020036059416AA30
:100450001667061000020038059416AA16670611E2
:100460000002003A059416AA16670612000200441C
:10047000059416AA1600001300020046059416AA59
:100480001600001400010048059416AA1600001575
:1004900000000000008C06ED0F0000FD377A585A6E
:1004A000000004E6D6B446020021011600000074E4
:1004B0002FE5A3E0018F00AE5D003D888986D3DC87
:1004C0000AE842C324925842588FD8E75CA0D26110
:1004D0006E26E888019A676C7887BC8D3709EA1E1A
:1004E000B48DA53C798586623CB1387CF673B05AF0
:1004F000144E0CAB5E8EDE368D73EBE2C15D08DC14
:100500003826AA15FEEA8192A0B254254F0514F5AB
:10051000F9E2BA3A62FD63CB4B750DC0AECBF9C7B9
:10052000869C01677FBDEF1512CDB39D5CA685CB80
:10053000D34C35065D5917C1BD1A2736E58E655A6D
:10054000508A009B31246636449A5B37DE4794DC40
:100550000B391F1FB2BC060B749EB9CD10EB732470
:10056000A5B9F5C505A85A79000000047C6C1AFBF2
:100570009F83570001CA0190030000429F40F1B1E0
:10058000C467FB020000000004595A0011241FBE7A
:10059000CFEFDAE0DEBFCDBF11E0A0E0B1E0E8EAE6
:1005A000F6E602C005900D92AE3AB107D9F725E004
:1005B000AEEAB1E001C01D92AF34B207E1F70E948C
:1005C000B7280C94D8320C9400009C019A958115A0
:1005D0009F4118F5F32FF270EE27832F8170732F50
:1005E00074706627532F5870442734FF0CC08295CF
:1005F000807FEF2B09F08062672B09F08064452B28
:1006000069F080680895EF2B09F08260672B09F08C
:100610008460452B19F08860089580E00895CF9399
:10062000DF93EB010E94E502FE010995DF91CF9176
:100630000895282F92959F70963099F060F4925FFC
:100640009F70923030F4203FB1F038F481E0283EC2
:1006500038F080E008959A5FF3CF81E0243FC9F736
:10066000089591E0813F09F090E081E0283E08F094
:1006700080E0892B089581E00895809324050895F2
:1006800080932505089521E030E001C0220F8A956E
:10069000EAF780912505822B0E944003089521E00E
:1006A00030E0A90102C0440F551F8A95E2F7CA0144
:1006B00080959091250589230E9440030895292F54
:1006C000953090F58A3080F590E03AE0239F800DD8
:1006D000911D1124282F277041E001C0440F2A9555
:1006E000EAF723E0969587952A95E1F7FC01EE0F4E
:1006F000FF1FE80FF91FE65DFC4F20E030E070E0DF
:100700005191DF01CB01022E02C0969587950A9484
:10071000E2F7817081958527842385278E932F5F4B
:100720003F4F2330310561F70895292F953078F533
:100730008A3068F590E03AE0239F800D911D1124E6
:10074000682F677023E0969587952A95E1F7FC015D
:10075000EE0FFF1FE80FF91FE65DFC4F40E050E091
:1007600080E0219130E0062E02C0369527950A944C
:10077000E2F721703327042E01C0220F0A94EAF712
:10078000822B4F5F5F4F4330510559F7089580E04A
:1007900008959091250521E030E0F90101C0EE0FA8
:1007A0008A95EAF7D90102C0AA0FBB1F6A95E2F742
:1007B000EA2B01C0220F4A95EAF7892F8E23E8130E
:1007C00005C0892F822B0E94400308952095822F17
:1007D0008923F9CF8091D8029091D702981301C054
:1007E00008958F5F8770FACF909172048095892366
:1007F00080937204282F2770211111C0891779F076
:1008000090914B0592FF0BC08695869586950E9428
:100810004F0310927204109274041092730408959E
:1008200090916E04982B90936E040895982F909554
:1008300080916E04892380936E04089580916C04E6
:10084000811531F010926C0410926B0410926A04BE
:1008500008959C01803E910509F448C0D8F4813385
:10086000910509F47DC048F48932910509F46DC001
:100870008A9709F47CC0C90108958933910551F123
:100880008238910539F1C597B1F780914A0585FF06
:10089000F2CF29C0843E910509F447C048F4823E56
:1008A000910599F1833E9105A9F121EE30E0E3CF66
:1008B000863E910509F444C0873E9105E1F680919A
:1008C0004A0583FD61C090914B0591FF2BC024EE3A
:1008D00030E0D1CF80914A058370811152C0809160
:1008E0004B0583FFC8CF29E230E0C5CF80914A0590
:1008F00080FD33C090914B0590FFBDCF23EE30E0DB
:1009000084FFB9CF20E030E0B6CF80914A0582FD68
:10091000F5CFB1CF80914A0582FD30C090914B0553
:1009200090FD2FC084FFA7CFEDCF80914B0581FFB5
:10093000A2CF80914A0527EE30E084FDE3CF9BCF24
:1009400080914A0583FDF7CF96CF80914A0585FDBA
:100950001EC080914B0583FF8ECF29E330E08BCF03
:1009600080914A0586FF87CF2AE230E084CF8091CC
:100970004A0586FF80CF21E330E07DCF22EE30E0D4
:100980007ACF20EE30E077CF26EE30E074CF25E34B
:1009900030E071CF90914A0592FF10C041E0282FBE
:1009A0002471243009F040E031E0282F28712830EC
:1009B00009F030E0431711F02CE0822793FF10C0BC
:1009C00041E0282F2471243109F040E031E0282F44
:1009D0002871283109F030E0431711F02CE082270C
:1009E00030914B0530FF10C051E0282F217121308C
:1009F00009F050E041E0282F2871283009F040E04C
:100A0000541711F029E0822731FF10C041E0282F50
:100A10002171213109F040E031E0282F287128317F
:100A200009F030E0431711F029E0822794FD877E1A
:100A300008951F93CF93DF930E942904EC01811541
:100A400022E5920708F055C0811540E5940708F0AB
:100A5000D1C0803E910520F58D3C910508F0A4C0E1
:100A6000883A910570F4853A910508F09AC0813072
:100A70009105D1F10497813A9105B0F1C0E0D0E041
:100A800033C0885A91094B97C8F7C85AD0E0CC0FA9
:100A9000DD1FCE5BDE4F0990D881C02DD46424C009
:100AA000811550E49507C0F4C11580E2D80708F01D
:100AB000B7C0C83ED105C0F0CE019A9581159F41BF
:100AC000E8F68D2F0E94CA04182FCE0199270E94A4
:100AD0002904EC01D12B08C099270E942904CC27B6
:100AE000DF70C82BD92BD06ACE01DF91CF911F9137
:100AF0000895803842E59407C8F5803652E5950799
:100B000008F05BC0C03482E5D807D0F4C03292E56B
:100B1000D90708F04BC08C2F8695869520E2829FDE
:100B2000C0011124C37021E030E0A90102C0440FCC
:100B3000551FCA95E2F7EA01C82BD92BDD68D4CF3F
:100B40008C2F86958695877050E2859FC001112471
:100B5000C37021E030E0A90102C0440F551FCA95BF
:100B6000E2F7EA01C82BD92BDC68BECF803C52E506
:100B7000950758F48F71C03AD245A0F590E0982FB0
:100B80008827EC01C46FD06AAFCF805C9245809714
:100B900008F074CFDC2FCC27CC27DF71C06FD06A70
:100BA000A3CFA497D064A0CFD0659ECFCF71D0E063
:100BB000DC2FCC27C16FD06A97CF8695869587703A
:100BC00020E2829FC0011124C37021E030E0A9011E
:100BD00002C0440F551FCA95E2F7EA01C82BD92B72
:100BE000DA6882CF0E94CA04C82FD0E0DC2FCC275D
:100BF000D0627ACF8F710E94CA0493E0CC0FDD1FC0
:100C00009A95E1F7CC27DF70282F30E084FF04C0ED
:100C100050E1859F90011124C22BD32BD06964CF62
:100C20008D2F8F710E94CA04182FCE0199270E9420
:100C30002904EC01D12BDCCF80E00895F894E82F53
:100C4000E295EF70F0E041A18F7021E030E0B90152
:100C500002C0660F771F8A95E2F7CB01962F909519
:100C6000942391A392A1892B82A3789408959C0147
:100C700021158CE7380741F48091A4029091A502D8
:100C8000892B11F420E030E0C9010895E7EDF3E08D
:100C900080E090E068EC77E24EEE57E223E638E23F
:100CA0007783668351874087338722879787868734
:100CB000019670968830910599F7089580912605E0
:100CC0009091270590930F0180930E010895E6E21D
:100CD000F5E0848195812AE030E0B9010E94DC31A1
:100CE00060931201868180931301828580930301B2
:100CF00084858093020186859785B9010E94DC3145
:100D00006093100180898093110182898093010191
:100D10008489809300010895EF92FF920F931F93AF
:100D2000CF93DF93FB018FEF9FEF4430510508F421
:100D30005FC040914A0541FB882780F990E0880F09
:100D4000991F42FB002700F910E0000F111F000F50
:100D5000111F802B912B40FBEE24E0F8F12C8E2903
:100D60009F2943FB222720F9C22F50E0D52F53E0C3
:100D7000CC0FDD1F5A95E1F78C2B9D2B44FB2227CE
:100D800020F950E1259F90011124822B932B45FBE4
:100D9000222720F950E2259F90011124822B932BCA
:100DA00046FB222720F950E4259F90011124822B35
:100DB000932B47FB222720F940E8249F9001112420
:100DC000822B932B20914B05322F3170932B26953C
:100DD0002170B22FBB0FA0E08A2B9B2B092E000C99
:100DE000AA0BBB0B80839183A283B38380E090E046
:100DF000CDB7DEB7E6E00C9439329C0143E096951E
:100E000087954A95E1F78E719927FC01E750FE4FCF
:100E100040815181F901EF70FF2721E030E002C0ED
:100E2000220F331FEA95E2F7611541F0422B532B55
:100E300087509E4FFC015183408308952095309543
:100E400042235323F5CF1092B6041092B504E5E780
:100E5000F4E08581811102C014821682379684E005
:100E6000ED3AF807B1F70895AC013091B8046091FC
:100E7000B704232F621301C00895822F90E0FC0174
:100E8000EE0FFF1FE355FB4F0190F081E02DE417BB
:100E9000F50791F467E0649FF001659FF00D112460
:100EA000EB58FB4F41E044832313E6CF0196837058
:100EB00099278093B80408950196282F2370DACFDC
:100EC000FC018481862381110AC082818115B9F0D9
:100ED0006823908593FF05C081E061110FC080E019
:100EE0000895282F22952F708F70282B962F92957A
:100EF0009F706F70962B81E02913F1CF089581E0E8
:100F00000895282F35EB2303C001112497FF04C057
:100F100080589109892F089580589F4FFBCF809169
:100F2000410360912E0570912F0580FF14C0209120
:100F30000301269FC001279F900D1124BC017695C7
:100F400067957695679560387105F0F561157105BF
:100F5000E9F1862F089581FF0BC020910301269FA0
:100F6000C001279F900D1124BC0176956795EBCFAA
:100F700082FF09C0809103019B01829FB001839F82
:100F8000700D1124E0CF809140038115E1F2909122
:100F9000020120910301891738F0CB01289FB0018D
:100FA000299F700D1124CFCF289F90011124269FD7
:100FB000A001279F500D369F500D1124692F70E01E
:100FC000CA010E94DC31BFCF8FE7089581E0089508
:100FD0008091410380FF0CC06091010170E0759524
:100FE0006795759567956115710549F1862F089587
:100FF00081FF06C06091010170E075956795F3CFA0
:101000006091010182FD0BC090913F039115A1F009
:101010006091000180910101961738F0682F70E00F
:101020006038710500F38FE70895899FC00111248E
:1010300070E00E94F031F4CF61E070E0D7CF81E042
:101040000895FA01309709F009950895E091CD02CD
:10105000F091CE02309729F00190F081E02D0995B2
:10106000089580E00895A3E0B0E0E9E3F8E00C948F
:1010700021329C018091F6019091F701821793072C
:10108000A1F03093F7012093F601E091CD02F091A9
:10109000CE02309751F083E089833B832A8300841A
:1010A000F185E02DCE01019609952396E2E00C949E
:1010B0003D32A3E0B0E0EFE5F8E00C9421329C0172
:1010C0008091F4019091F50182179307A1F030937C
:1010D000F5012093F401E091CD02F091CE0230971A
:1010E00051F084E089833B832A830084F185E02DDD
:1010F000CE01019609952396E2E00C943D32909141
:101100001601913091F0A2EBB1E0EFEF90E02D915C
:10111000821751F0EF3F19F4211101C0E92F9F5FB1
:101120009630A9F7EF3FC9F4089590914A0597FFCB
:10113000EACFE82FE695E695E695803FA8F7F0E040
:10114000E854FE4F877021E030E001C0220F8A95FD
:10115000EAF78281822B828308950E2E000CFF0B0A
:10116000E055FE4FF8CF90911601913021F4909107
:101170004A0597FD0CC0E2EBF1E09191891302C0A2
:10118000DF011E9251E0E83BF507B9F70895E82F1B
:10119000E695E695E695803FC8F7F0E0E854FE4F07
:1011A000877021E030E0A90102C0440F551F8A95E5
:1011B000E2F7CA0180959281892382830895809104
:1011C000150108952FB7F8948091F0019091F101E5
:1011D000A091F201B091F3012FBF089580912805ED
:1011E00090912905892B91F00E94E20820916A04D0
:1011F00030916B04AC01421B530B9A0181E040918A
:101200002805509129052417350708F480E0089532
:10121000CF93DF93C0916E0480917104C82B8091AD
:101220006C048115F9F08091280590912905892B8E
:1012300029F00E94EE0881110E941E04D0916C04D6
:1012400080911601813021F480914A0587FD14C0F8
:1012500086E022EB31E090E0815090F491110E9401
:101260001E04CD2B8091530380958C2390915203C3
:10127000892BDF91CF9108958EE12AEB31E0EBCFFE
:10128000F90141919F01411539F39F5FE5CF962FF9
:1012900020914B0522FF10C0682F660F660F660F66
:1012A000692B609372040E9443030E94E2089093AA
:1012B00074048093730408950E94430308959091E9
:1012C0006C04292F2823211561F0809589238093B0
:1012D0006C04811539F00E94E20880936A049093AF
:1012E0006B04089580E090E0F8CFCF93C82F8091F1
:1012F0004B0582FF0CC080916C048C1741F00E945A
:10130000E20890936B0480936A04C0936C04CF91BD
:1013100008950E94E2082091440330914503232B55
:10132000211521F08093930290939402209146031B
:1013300030914703232B211521F080939102909344
:101340009202E091CD02F091CE02309749F082E016
:10135000809342030680F781E02D82E493E00995B3
:101360000895611509F44BC0E3E3E80FE33150F44D
:10137000F0E0E652FD4C0C9404320E948F078195F8
:10138000809345030E94890908950E948F07F8CF32
:101390000E948F07819580934403F4CF0E948F07AA
:1013A000FACF0E94E80780934603ECCF0E94E8073B
:1013B0008195F9CF0E94E807819580934703E2CF9A
:1013C0000E94E807FACF815D990B21E030E001C06F
:1013D000220F8A95EAF780914303822B809343037F
:1013E000D1CF80914103816080934103CBCF809125
:1013F00041038260F9CF809141038460F5CF409131
:1014000044038D3C59F48091450387FF0DC0109231
:101410004503411559F41092400308C08E3C81F4F5
:101420008091450318169CF3411581F08091460385
:1014300090914703892B8111A5CF10923F03A2CF32
:101440008F3C41F447FFF0CF109244038091450355
:101450008115E0CF803D19F41416B4F3E5CF9091D7
:101460004603893D29F41916FCF610924603DCCF99
:101470008A3D19F497FFD8CFF8CF909147038B3D61
:1014800029F497FFD1CF10924703CECF8C3D19F4AA
:101490001916CCF3C9CF9FE2980F983090F4815D74
:1014A000990B21E030E0B90102C0660F771F8A95E1
:1014B000E2F7CB0180959091430389238093430306
:1014C000B3CF8D3D31F4809141038E7F80934103F2
:1014D000ABCF8E3D21F4809141038D7FF7CF8F3DBF
:1014E00009F0A2CF809141038B7FF0CF2FB7F89402
:1014F0006091F0017091F1018091F2019091F301FE
:101500002FBF0895CF92DF92EF92FF92CF93DF9398
:10151000D82FC92FC090D103D090D203E090D3032D
:10152000F090D4030E94760A6C197D098E099F09F8
:10153000643F71408105910518F10E94760A6B01A4
:101540007C0182E390E0A0E0B0E0C0928D02D092F6
:101550008E02E0928F02F092900280938902909323
:101560008A02A0938B02B0938C02D093CF03C093D6
:10157000D003DF91CF91FF90EF90DF90CF9008954F
:1015800084EF91E0A0E0B0E0E0CF87E797E79093A9
:1015900001088093000888E19AE00FB6F894A895B6
:1015A000809360000FBE90936000FFCFFC019B0111
:1015B0008091E6019091E7018617970740F0672B2D
:1015C00029F48091E8008E778093E800C90140E01B
:1015D000009741F4411106C08091E80082FF2FC0BE
:1015E00080E008952091A6022115A9F12530A9F1E6
:1015F0002091E80023FD2DC02091E80022FDECCFD2
:101600002091E80020FFE4CF3091F3002091F20018
:10161000009719F02830310558F041E028303105A5
:1016200009F040E02091E8002E772093E800D0CF29
:1016300041914093F10001972F5F3F4FE9CF809197
:10164000A602811541F0853041F08091E80083FFCA
:10165000C3CF81E0089582E0089583E008958091EA
:10166000E00187FF13C08091E80082FF06C08091EF
:10167000E8008B778093E80008958091A60281119D
:10168000F2CF08958091A6028115D9F38091E800E8
:1016900080FFF8CF8091E8008E77ECCF2091E400B6
:1016A0003091E50095E6A9012091EC00822F817030
:1016B00020FF06C08091E80080FF06C080E008950A
:1016C0002091E80022FD1AC08091A602811589F0C0
:1016D000853089F08091EB0085FD0FC02091E400FA
:1016E0003091E50042175307F9F29A95E1F684E04C
:1016F000089582E0089583E0089581E00895E8ED7B
:10170000F0E080818E7F80831092E2001092DA00F8
:101710001092E100A0EEB0E08C9181608C9380810A
:101720008F77808319BCA7EDB0E08C918E7F8C936E
:1017300080818F7E80831092DF010895982F90938F
:10174000E900891771F07091EC002091ED00509143
:10175000F00021FD09C09F5F973089F78093E90071
:101760000895762F242F50E03091EB003E7F309388
:10177000EB003091ED003D7F3093ED003091EB00B8
:1017800031603093EB007093EC002093ED005093A8
:10179000F0002091EE0027FDDECF0895A0E0B0E03C
:1017A000E4EDFBE00C941B32C8EDD0E088818F7E25
:1017B0008883E7EDF0E080818160808384E082BFF0
:1017C00081E08093DF0188818E7F888302EE10E0C4
:1017D000F80110821092DA0081EEC82ED12CF601A9
:1017E000108288818F778883888180688883888148
:1017F0008F7D888319BC1092A6021092DE01109290
:101800007D021092DD0190EEE92EF12CF70180812E
:101810008B7F808388818160888342E060E080E004
:101820000E949E0BF60180818E7F8083F80180816B
:1018300081608083808188608083F70180818E7FD2
:101840008083888180618883CDB7DEB7E8E00C941F
:1018500037329C012115310509F408958FE99FE085
:101860000197F1F700C0000021503109F3CF0F9329
:101870001F93CF93DF938B01EA019091A6029430DE
:1018800059F58093E9008FEF9091E80095FD06C02F
:1018900095ED9A95F1F700008A95B1F78091E800EF
:1018A00085FF1AC00E944E0B811111C08091E80083
:1018B00085FD06C08091E8008E778093E800F2CF26
:1018C000F80181918F018093F100219779F7809140
:1018D000E8008E778093E800DF91CF911F910F9100
:1018E0000895CF93DF93D82FC92F48E050E0682F99
:1018F000792F81E00E94370C88E0ED2FFC2FA8EEB5
:10190000B1E001900D928A95E1F7DF91CF910895B2
:10191000BC0140E250E084E00E94370C0895BC0115
:1019200046E050E084E00E94370C0895BC0143E09B
:1019300050E084E00E94370C089590914B0592FB93
:10194000222720F9281779F080FB92F990934B0514
:1019500060914A0570914B0584E090E00E94BA3294
:1019600082E00E94F40308951F93CF93DF93962F94
:10197000122F632F8430D8F49530C8F44A30B8F46D
:10198000C42FD0E0CC0FDD1F24E1929FC00DD11DEC
:10199000112494E6899FC00DD11D1124CE01889693
:1019A0000E949C32612FCE0189960E949C32DF9169
:1019B000CF911F910895CF93DF93CCECD2E060E0FC
:1019C000CE010E949C322196C11584E0D807B9F758
:1019D000DF91CF910895CF93C82F6AE7811101C09D
:1019E0006FEF84E290E00E949C326BE8C11101C06D
:1019F0006FEF85E290E00E949C326CE2C11101C061
:101A00006FEF86E290E00E949C32CF9108950F9391
:101A10001F93CF93DF9306E215E0C8EBD1E0CE0130
:101A20000E947E32F80161918F01681719F0CE0192
:101A30000E949C322196CC3DF1E0DF0781F7DF91D7
:101A4000CF911F910F9108950F931F93CF93DF9321
:101A500006E215E0C8EBD1E0CE010E947E32F8012B
:101A600081938F012196CC3DF1E0DF07A9F7C9EA08
:101A7000D3E0FE0185919491009711F0FC01099546
:101A80002C96F4E0C53ADF07A1F7DF91CF911F91C3
:101A90000F9108950F931F93CF93DF93843030F508
:101AA000653020F54A3010F5C42FD0E0CC0FDD1F93
:101AB00024E1629FC00DD11D112434E6839FC00D27
:101AC000D11D1124CE0188960E947E32082F10E08D
:101AD000102F0027CE0189960E947E329801282B74
:101AE000C901DF91CF911F910F91089580E090E09F
:101AF000F8CF462F672F2091A9023091AA02232BFD
:101B000091F4703F39F4403F71F48091A7029091B5
:101B1000A8020895753038F44A3028F4843018F457
:101B20000E944A0D089580E090E00895A0E0B0E0A2
:101B3000ECE9FDE00C941C327C01009125058091BC
:101B40002405082BC3E0D0E010E0C8010C2E02C031
:101B5000959587950A94E2F780FD09C02197A8F72B
:101B6000D12C8D2DCDB7DEB7E7E00C943832DC2ECA
:101B7000B7018C2F0E94790D0E941905019771F30E
:101B8000F0CFCF93DF93D82FC92F0E94960D6D2FE2
:101B90007C2F0E94790D0E941905DF91CF91089545
:101BA000FC018481811571F087819085009729F06F
:101BB0000E9419050E9419030895808191810E9455
:101BC000C10DF8CF80E008951F93CF93DF93182FB6
:101BD000D92F611599F0411589F00E94960DC82FF3
:101BE000682F812F9D2F0E945F03612F7D2F8C2FE7
:101BF0000E94790DDF91CF911F9108950E94950366
:101C0000C82FF3CFCF93DF93FC01462FC781D08538
:101C1000209731F46581808191810E94E40DEC016F
:101C2000CE01DF91CF91089584E290E00E947E3250
:101C30008A3789F485E290E00E947E328B3859F42D
:101C400086E290E00E947E3291E08C3209F090E0D2
:101C5000892F8170089580E0FCCF8091160181303A
:101C600059F580914A0587FF27C00E940809809393
:101C7000B90140E250E06DEA72E088EB91E00E9429
:101C80005132892BC1F080E2E8EBF1E0ADEAB2E03D
:101C900001900D928A95E1F7E091CD02F091CE028C
:101CA000309749F086E08093B8010480F581E02DFB
:101CB00088EB91E0099508950E9408098093B0018E
:101CC00048E050E06FEC72E080EB91E00E9451320E
:101CD000892B89F388E0E0EBF1E0AFECB2E0019012
:101CE0000D928A95E1F7E091CD02F091CE02309706
:101CF00011F30280F381E02D80EB91E0DBCF8115C1
:101D000021F00E9410040E942D0E0895811539F0D3
:101D100090917104892B809371040E942D0E089577
:101D2000811521F00E9416040E942D0E0895811540
:101D300041F08095909171048923809371040E94F1
:101D40002D0E0895CF93C82F8115D1F08CEF8C0FF5
:101D5000813AA0F580911601813021F480914A05E5
:101D600087FD10C0E2EBF1E08191C81709F121E095
:101D7000E83BF207C9F78C2F0E947F080E942D0EC6
:101D8000CF910895EC2FE695E695E695F0E0E854BE
:101D9000FE4F828190E04C2F477021E030E002C07E
:101DA000220F331F4A95E2F782239323892B19F3DD
:101DB0008C2F0E94B3080E942D0EDDCF80E28C0F85
:101DC000883048F4C77081E001C0880FCA95EAF7EF
:101DD0000E941004D3CF8BE58C0F833038F42C2F66
:101DE0002452330BC9010E943308CACFE8E5EC0F37
:101DF000EB3150F4F0E0EE0FFF1FE858FE4F80810A
:101E000091810E945908BCCF83E38C0F833108F085
:101E1000B7CF61E08C2F0E94B109B2CFCF93DF938F
:101E2000EC01805E9109089720F066E87EE020973B
:101E300011F46FE77EE0CE010E940F038C2F0E9409
:101E4000A20EDF91CF9108959C01611529F0809138
:101E50007104826080937104C9019052811590438E
:101E600008F43327C9010E940E0F0895811581F1EE
:101E70009CEF980F913A28F40E94B3080E942D0E0F
:101E8000089590E2980F983050F4877091E001C067
:101E9000990F8A95EAF7892F0E941604EFCF9BE5E8
:101EA000980F933028F480E090E00E943308089562
:101EB00098E5980F9B3128F480E090E00E94590843
:101EC000089593E3980F933118F460E00E94B109EC
:101ED0000895CF93DF93EC010E94360FCE01805E10
:101EE0009109089720F067E97EE0209711F460E9F6
:101EF0007EE0CE010E940F03DF91CF9108950F93F2
:101F00001F93CF93C82F8B010E94A20E01151105BC
:101F100039F48C2F0E94360FCF911F910F910895A5
:101F20008FE99FE00197F1F700C00000015011090F
:101F3000EDCF6091460570914705893321F060919E
:101F40004405709145050E947F0F089510926E041C
:101F500080911601813039F580914A0587FF23C0B1
:101F6000EAEBF1E08EE1DF011D928A95E9F780E06E
:101F700090E00E94330880E090E00E94590810929F
:101F800071040E942D0E86E0E2E4F3E0DF011D9271
:101F90008A95E9F71092400310923F031092410393
:101FA0000E9489090895E2EBF1E086E0DCCF0E940F
:101FB000A60F2FEF84E39CE0215080409040E1F792
:101FC00000C0000088E19AE00FB6F894A8958093CD
:101FD00060000FBE90936000FFCFCF93DF93FB01B3
:101FE0008FEF9FEF44305105B8F0D081C1810E943E
:101FF000A60FD0934A05C37080914B058C7FC82BE8
:10200000C0934B0560914A0570914B0584E090E0C8
:102010000E94BA3280E090E0DF91CF910895E6E22D
:10202000F5E0128E138E8FEA90E09183808325E095
:10203000248F88E893E1938382838AE090E09583FC
:10204000848344E150E05783468348E050E0518761
:102050004087938782876EE170E0758764879787F2
:10206000868780E590E0918B808B538B428B48E292
:1020700050E0558B448B42E350E0578B468B48EC45
:1020800050E0518F408F158E178E168E91A380A32E
:1020900022A30E94070D0E94A60F10924B051092DA
:1020A0004A0580E0846080934B0560E074E084E042
:1020B00090E00E94BA320E94240D0895AAE2B0E096
:1020C000E4E6F0E10C94203280EE91E0FC01019610
:1020D0002091F100208321E0883E9207B9F780919A
:1020E000E101893009F45AC0C8F4823009F4B7C05C
:1020F000833009F486C0813091F18091E80083FF3C
:10210000EBC08091E0019091E1019A3008F0E4C0C9
:10211000E92FF0E0E351FD4C0C9404328A3009F4CD
:102120008DC08B3051F78091E001813231F7809181
:10213000E4019091E501892B01F78091E800877F08
:102140008093E8000E942F0B81E09091E2019111B1
:1021500001C080E0809316010E94A60FCECF80912F
:10216000E001813A51F68091E800877F8093E80092
:102170008091E4019091E501892B61F060E080E0BD
:1021800090E070E00E94D60A8091E8008B778093FF
:10219000E800B3CF68E088EE91E0F3CF8091E001F2
:1021A000813209F0AACF8091E4019091E5018D7F01
:1021B000892B09F0A2CF8091E800877F8093E80007
:1021C0008091E80082FF18C09091F3008091F200A6
:1021D000029731F48091F100813011F0863021F4C2
:1021E0008091F100809315018091E8008B778093B6
:1021F000E8000E942F0B81CF8091A6028111E0CFD1
:102200007CCF8091E001813A09F077CF8091E401A1
:102210009091E501892B09F070CF8091E800877FCC
:102220008093E8008091E80080FFFCCF8091160148
:102230008093F1008091E8008E77D9CF8091E00102
:10224000813209F05ACF8091E800877F8093E800BF
:102250000E942F0B8091E301809314014ECF809157
:10226000E001813A09F049CF8091E800877F8093AF
:10227000E8008091E80080FFFCCF80911401D8CF66
:10228000803889F0823841F58091E4018F70873081
:1022900018F58093E9008091EB0085FB882780F991
:1022A0001092E90006C080917D02880F9091DD01B7
:1022B000892B9091E800977F9093E8008093F1003C
:1022C0001092F1008091E8008E7723C0811116C032
:1022D0008091E201813011F18091E80083FF0AC012
:1022E0008091E800877F8093E8008091EB00806216
:1022F0008093EB00AA96E3E00C943C32823061F7C5
:102300008091E201811589F01092E9008091E80046
:10231000877F8093E8000E942F0BDECF81E093300F
:1023200009F080E080937D02EFCF8091E4018F700F
:102330002FEF280F263080F68093E9002091EB00E4
:1023400020FFE2CF933031F48091EB0080628093E4
:10235000EB00DACF9091EB0090619093EB0021E0DD
:1023600030E0A90102C0440F551F8A95E2F740935F
:10237000EA001092EA008091EB008860E8CF8111BA
:10238000ABCF1091E2011F778091E3008078812B21
:102390008093E3008091E800877F8093E8000E94AB
:1023A0002F0B8091E80080FFFCCF8091E3008068D4
:1023B0008093E30083E0111101C082E08093A602C4
:1023C0008BCF8058823008F087CF8091E2019091C6
:1023D000E3018C3D53E0950799F583E08A838AE217
:1023E00089834FB7F894DE01139620E03EE051E276
:1023F000E32FF0E050935700849120FF03C08295B3
:102400008F703F5F8F708A30C8F0895C90E08D9349
:102410009D932F5F243161F74FBF8091E800877F44
:102420008093E8006AE270E0CE0101960E94D60A2D
:102430008091E8008B778093E8004ECF805DE6CFF7
:10244000292F33272330310509F44EC078F5213088
:10245000310509F488C08BE590E0E8E7F2E022302E
:10246000310509F039CF2091E800277F2093E8005B
:102470002091E6013091E7018217930708F49C014F
:1024800040E02115310509F073C0411171C0809100
:10249000E80082FDCDCF8091A602811549F28530FA
:1024A00039F28091E80083FFF2CFC2CF8091E4013E
:1024B0009091E5012132310509F446C022323105FF
:1024C00009F00ACF8330910508F006CFFC01EE0F2A
:1024D000FF1FE95DFE4F0190F081E02D8C5D9E4F66
:1024E000DC018C9190E010C09C013327823021F1F7
:1024F0002330310568F4232BB9F4E7E3F3E0E491EA
:102500008E2F90E0E7E3F3E0009709F4E5CEABCF40
:102510002330310509F0E0CEE5EEF2E0E4918E2FB4
:1025200090E0E5EEF2E0F0CFEBE1F3E0E4918E2F06
:1025300090E0EBE1F3E0E8CFE3E0F3E0E4918E2F0D
:1025400090E0E3E0F3E0E0CF8330910508F0C4CE03
:10255000FC01EE0FFF1FE35DFE4F0190F081E02DC7
:1025600089E090E080CF82E190E0E3EDF2E07BCF84
:102570008091A602811509F45BCF853009F458CF0C
:102580008091E80083FD54CF8091E80082FD7FCFE9
:102590008091E80080FF75CF9091F3008091F20068
:1025A0002115310519F08830910550F041E0089768
:1025B00009F040E08091E8008E778093E80061CFD9
:1025C00044914093F1003196215031090196E8CFB2
:1025D000803809F081CE8091E800877F8093E80001
:1025E0008091DE018093F1006DCE811175CE109146
:1025F000E201123008F070CE8091E800877F80936E
:10260000E8001093DE010E942F0B1115F9F084E011
:102610008093A60242E061EC81E00E949E0B42E2C0
:1026200061EC84E00E949E0B42E261EC82E00E9439
:102630009E0B42E260EC83E00E949E0B8091A6021A
:10264000843051F482E08093170146CE8091E300FC
:1026500087FDDDCF81E0DCCF81E0F5CF80911901EE
:10266000877F80931901909171049D7F90937104ED
:1026700084FF06C08F7E8093190182E00E941004BF
:102680008091190185FF06C08F7D8093190180E23A
:102690000E9410040E942D0E0895CF92DF92FF92A7
:1026A0000F931F93CF93DF93EC018B01F42E809156
:1026B000190182FF65C0C0905D04D0905E04CC1605
:1026C000DD0619F0209709F05BC0809119018B7F1E
:1026D00080931901C1E081FD10C080915B0490914D
:1026E0005C049801281B390BC1E080910E01909188
:1026F0000F012817390708F4C0E080911901C0FBC9
:1027000081F9809319016C2FC6010E94FD0680910A
:102710006E0481FF08C080911901806180931901C6
:1027200082E00E94160480916E0485FF08C08091AB
:10273000190180628093190180E20E9416046C2FB7
:10274000C6010E94240FF11431F08091410585FFEC
:1027500002C086FF29C080914405909145050E94E2
:10276000290C80915D0490915E049C0130522115EA
:10277000304308F499270E94690F0E942E1310C05D
:10278000CE01905281159043B8F4CE0199270E9452
:10279000690F80915D0490915E04C817D90769F3B1
:1027A00010935C0400935B04DF91CF911F910F9114
:1027B000FF90DF90CF900895CE01E9CFCF93DF93C4
:1027C000EC014A855B856E857F850E9421089B818F
:1027D0009095809171048923809371048C810E946B
:1027E00016040E942D0E86E0FE0111928A95E9F7EB
:1027F000DF91CF910895CF93DF93EC018D8181FD1F
:1028000014C082608D83809171049B81892B809399
:1028100071048C810E9410040E942D0E48855985F8
:102820006E857F85CE010E94210810925804109277
:1028300057048D8180FD03C0CE010E94DE13DF911D
:10284000CF9108951F93CF93DF93182FA091CD03BD
:10285000B091CE03109709F44AC01092D0031092A1
:10286000CF0310925303109252031696CD91DC9130
:102870001797CE019A9581159F4108F4D07ED1E03B
:10288000C11101C0D0E01996ED91FC911A973097D3
:1028900031F01B966D917C9180E00995D823D1157C
:1028A00039F08CEF8C0F813A30F58C2F0E94B308F1
:1028B0001115A9F0E091CD03F091CE03808584FD40
:1028C0000EC08091CC03811551F0808191819C01D3
:1028D000215031092F333E4710F40E94820A0E9492
:1028E0002D0E1092CE031092CD031092CC03DF91E7
:1028F000CF911F9108950E942D0E8C2F0E94360FAC
:10290000D7CF8F929F92AF92BF92CF92DF92FF92DA
:102910000F931F93CF93DF93CDB7DEB76E970FB6AC
:10292000F894DEBF0FBECDBFC090A402D090A50228
:1029300081E090E09093A5028093A40210E08BE3E5
:10294000A82E83E0B82E00E01AC021E030E011117B
:1029500004C0F401859194919C014F2D602F812F2B
:102960000E94B40CF39482E0880E911CAAE0FA1243
:10297000ECCF0F5FB4E1AB0EB11C053019F045018F
:10298000F12CE3CF1F5F1430D1F60E940F101A8292
:1029900019821C821B821E821D8218861F8288EC6F
:1029A00090E09A8789870CED11E04AE050E0B80189
:1029B000CE0101960E94C032065F1F4F0C3282E0AA
:1029C000180799F7FE013B968AE0DF011D928A9570
:1029D000E9F7BE2EFF2E4AE050E0B8018B2D9F2D67
:1029E0000E94C032065F1F4F0C37B2E01B0799F7F9
:1029F000FE01759689E0DF011D928A95E9F78FEF58
:102A00009FEF9A8F898F87E08E8FBE2EFF2E4AE030
:102A100050E0B8018B2D9F2D0E94C032065F1F4FE2
:102A20000C3CB2E01B0799F7D092A502C092A40219
:102A30006E960FB6F894DEBF0FBECDBFDF91CF917B
:102A40001F910F91FF90DF90CF90BF90AF909F901C
:102A50008F90089580E00E94EB0C60E087E290E0A8
:102A60000E949C320E9481140E94DB0C81E00E9433
:102A7000EB0C0895AAE0B0E0E0E4F5E10C941B3221
:102A8000EAE1F2E080E5DF011D928A95E9F7E5E7EA
:102A9000F4E088E3DF011D928A95E9F78AE1C82E08
:102AA00082E0D82E7F010CE212E0F701D182C082D1
:102AB0004AE050E0B801CE0101960E946E3288E0F3
:102AC000FE013196D60101900D928A95E1F7898534
:102AD0009A85D70113969C938E931297BAE0CB0EEA
:102AE000D11CE7E0EE0EF11C065F1F4F0C37F2E041
:102AF0001F07D9F62A96E8E00C943732AAE0B0E036
:102B0000E4E8F5E10C94193204E513E08CE7E82ED3
:102B100082E0F82E97E0B92E29E1C22E22E0D22ED3
:102B2000AA24A3944AE050E0B701CE0101960E9486
:102B30006E32F8013896DF018B2D1D928A95E9F7E8
:102B400089819A81D80111969C938E938F811296D8
:102B50008C9312978D8113968C9313978885149676
:102B60008C931497898515968C9315978B819C81EE
:102B700017969C938E9316978A8587FD04C01E96A0
:102B8000DC92CE921D9780FF02C0F801A08681FFE3
:102B900007C0D80118969C911897926018969C933C
:102BA00082FF04C0F80190859460908783FF07C07E
:102BB000D80118969C911897986018969C9384FF5A
:102BC00004C0F80190859061908785FF07C0D80107
:102BD00018968C911897806218968C93BAE0EB0E39
:102BE000F11C015F1F4FECECEE16E2E0FE0609F06F
:102BF00099CF2A96EAE00C943532282FCB01283061
:102C000070F44AE0249F90011124B90164527E4F70
:102C10004AE050E00E946E3280E090E008958FEF2D
:102C20009FEF0895AAE0B0E0E8E1F6E10C942132CC
:102C30009C0197558115914070F4BE016F5F7F4FE5
:102C4000822F0E94FD15892B31F489859A852A9659
:102C5000E2E00C943D3280913E0590913F05F7CF24
:102C6000A0E0B0E0E6E3F6E10C941C32162FD72F7B
:102C7000C42FD22E8115A9F0409368040E94E20867
:102C80009093DC018093DB01C77081E001C0880F65
:102C9000CA95EAF70E947F0ECDB7DEB7E7E00C9445
:102CA000383290916804491338C0E090DB01F0900D
:102CB000DC010E94E2089C012E193F097901812F55
:102CC0009D2F0E941216E816F90638F5D0E2DD0DA8
:102CD000CD15A1F0C77011E0812F01C0880FCA95F2
:102CE000EAF70E94900ED83048F48D2D877001C00D
:102CF000110F8A95EAF7812F0E947F0E802F0E9484
:102D0000990FD83048F62D2D277081E001C0880F2B
:102D10002A95EAF70E94900EBFCFC77081E001C0EC
:102D2000880FCA95EAF7F6CF9C01CB01DA01F901C9
:102D3000329645915491A417B50748F0F90134969D
:102D4000659174910E945E3280E090E008958FEF6B
:102D50009FEF08959C01DA010296FC014591549180
:102D6000FC0185919491A817B90758F0F9013496A0
:102D7000859194910E945E320E94070D80E090E060
:102D800008958FEF9FEF0895AAE0B0E0EAECF6E136
:102D90000C941332FE0131968AE0DF011D928A9570
:102DA000E9F793E3C92E91E0D92E8F012F01662414
:102DB0006394712C32E4832E31E0932EF6018191DD
:102DC0006F018F3F09F445C0F894E82FE295EF704A
:102DD000F0E021A18F70A30102C0440F551F8A9516
:102DE000E2F7CA01922F982B91A392A18095892393
:102DF00082A3789400C0E8E3F1E021E030E0A12C68
:102E0000B12C41914F3F81F0A42FA295AF70A05EED
:102E1000B0E08C9190E04F7002C0959587954A95EF
:102E2000E2F7790180FF02C0E12CF12CAE28BF2827
:102E3000220F331F8E169F0621F7F60182918F3FD6
:102E400011F00E941E0650EA5A95F1F7D801AD9292
:102E5000BC920E5F1F4FB8E3CB16B1E0DB0609F062
:102E6000ADCF4AE050E0B20182E792E00E945132D9
:102E7000892BA9F08AE0F201A2E7B2E001900D925D
:102E80008A95E1F781E08093DA010E94E20890934D
:102E9000D9018093D8012A96E0E10C942F328091D9
:102EA000DA018115C1F30091D8011091D9010E9476
:102EB000E208801B910B059770F34AE050E062E74F
:102EC00072E08AE992E00E945132892B49F08AE04F
:102ED000E2E7F2E0AAE9B2E001900D928A95E1F70B
:102EE0001092DA01D8CFA0E0B0E0E9E7F7E10C9466
:102EF0001A32EC0188818115F1F0813009F042C06D
:102F00008981813029F48A8123960E94990FF2CF1A
:102F1000823029F48A8123960E94A20EEBCF83305F
:102F200029F48A8123960E94360FE4CF843041F041
:102F300022968111DFCFCDB7DEB7E9E00C943632AF
:102F40008A81239620E030E09AE0682F6053770B67
:102F5000AB016A30710560F02115310551F3EFE9DD
:102F6000FFE03197F1F700C0000021503109F4CFA4
:102F7000929FB001939F700D11249A01260F371F65
:102F80008991E3CFE82FF0E0E850FE4FB490282F6E
:102F900026952695269530E0F901E851FE4FE490FC
:102FA0008770F12C082E02C0F594E7940A94E2F79A
:102FB000E0FAEE24FF24E0F8F901E852FE4FC49055
:102FC000D12C082E02C0D594C7940A94E2F7C0FA17
:102FD000CC24DD24C0F8F901E853FE4F049110E041
:102FE00002C0159507958A95E2F701701127E11443
:102FF000F10419F081EE0E94A20EC114D10419F05F
:1030000086EE0E94A20E60E070E08B2D0E947F0F82
:10301000C114D10419F086EE0E94360FE114F104B8
:1030200019F081EE0E94360F0115110519F08CE29E
:103030000E94990F21965ECFAFE0B0E0E2E2F8E1A6
:103040000C9411327C01DC0114968C91811509F4E9
:1030500068C161E0C7010E94020E8C01F701858101
:10306000811531F18091570490915804009701F136
:1030700008171907E9F0FC01FF27887F9927892B9A
:1030800009F067C064E0EE0FFF1F6A95E1F7E952AF
:10309000FC4F85818460858311830083CF010E946A
:1030A000FB131092710461E0C7010E94020E8C01B3
:1030B000D70115968C91811509F4BEC0C8019757A8
:1030C0008038910508F0EAC0D02EB0E10B1708F067
:1030D00017C18FEF93E00E947E32811111C10CEC79
:1030E00012E0D11039C054E0652E9E012F5F3F4F92
:1030F0005901D501E62D1D92EA95E9F74801FFEF48
:103100008F1A9F0AC8010E947E328983811509F4B3
:10311000F7C0813009F08AC0680122E0C20ED11CDC
:10312000C4010E947E32782E8A83811509F4E8C09A
:103130008FEF870D8330F0F4C6010E947E328B83BF
:10314000811519F0C5010E9473170D5F1F4F6801AB
:1031500071C0E0E0F0E09DCF0115E4E01E0709F446
:10316000CFC0C8010E947E320F5F1F4F8111F4CF84
:10317000DA94B7CF8BEF870D833060F5480143E0D9
:10318000840E911CC6010E947E328B83811509F446
:1031900050C00C5F1F4F6801C4010E947E328C83B7
:1031A000811509F447C08B819C818130AFEF9A076C
:1031B00010F0982F8827B6E07B1631F0E7E07E16F6
:1031C00031F00E94B52736C00E946D2733C00E949F
:1031D000912730C0F4E07F122DC0C6010E947E32DC
:1031E000982E680124E0C20ED11CC80103960E94EB
:1031F0007E32282F911409F483C0811509F480C010
:103200002150330B4FEF429FC001439F900D11247B
:10321000492D4150550B840F951F019758F0AFE988
:10322000BFE01197F1F700C00000F7CFC5010E9481
:103230007317640186015DCF6801E7E5DE1AC114EA
:10324000F1E0DF0658F568E473E08C2D0E94FD156F
:10325000892B21F5C60134E0880F991F3A95E1F7D3
:10326000FC01E952FC4F22812130A1F52091480355
:1032700030914903232B91F020914A0330914B0365
:10328000232B61F020914C0330914D0340914E036C
:1032900050914F03242B352B232B21F1D701159669
:1032A0002C90211409F441C00E35BCE71B0729F10D
:1032B0000F35ECE71E0741F00D35FCE71F07A9F5B8
:1032C000809118018115C9F01092180180E00E94C8
:1032D000221416C0223011F720914C0330914D0377
:1032E000232BE1F2FC01E452FC4F20812E7F20834E
:1032F00089529C4F0E94FB13D1CF81E0809318012B
:10330000809172048770811561F0D70115968C91B8
:10331000811539F080914B0582FF03C082E00E9445
:10332000F4032F96E2E10C942D3280911801811163
:1033300048C0C80197558115914008F0DEC058017A
:10334000F8EFAF22BB24A114B104D1F6F801FF2796
:1033500094E0EE0FFF1F9A95E1F79F0129523C4F31
:103360006901D70115968C91E452FC4F908180FB46
:1033700090F99083811509F4FEC10E94E2089093B0
:103380005A0480935904F60182818F5F8283809171
:10339000710490916E04892B838380916C048483E3
:1033A0004681578166857785C6010E942108D6012E
:1033B00015968C9181FF5801B0925804A092570441
:1033C0009CC0280130EE431A510830906D04809162
:1033D0006E04382A80916C04382A48E0441651045F
:1033E00008F05EC098012770332781E090E001C0AB
:1033F000880F2A95EAF7211409F44FC0382AD7011B
:103400008D919C910E94950321E030E0F90102C06A
:10341000EE0FFF1F8A95E2F7FF87EE872091CD031D
:103420003091CE03398728874091D5035091D60338
:103430005D874C8724E5C22E23E0D22EA12CB12C2F
:10344000311005C0D60112968C9181111BC0F60176
:10345000838190E02E853F8582239323892B91F0F1
:103460008085982F9770911101C087E038E043164E
:10347000510408F0A8C0211409F4A1C086958170F8
:103480008111A6C0EFEFAE1ABE0AFFE0CF0ED11C2D
:1034900028E0A216B104A1F61CC080953822AFCF57
:1034A00021107AC08091D5039091D603081719078F
:1034B00081F41092D6031092D5031092D10310928A
:1034C000D2031092D3031092D4031092D00310921F
:1034D000CF038091CD039091CE03009709F429CFBB
:1034E00038E04316510408F030C1632D0E94600794
:1034F000811103C081E00E9422148091410580FF68
:10350000AAC10E94E2083C01F7018581811509F4F6
:10351000B4C18091190182FF06C040E0B30180E090
:1035200090E00E944D130431FCE71F0709F4A1C18C
:1035300005312CE7120709F43BC103313CE71307BF
:1035400009F47CC1C80190528115904308F03AC13A
:1035500010925E0410925D04F7019581911509F4B3
:103560000DC310926804980130572332310508F0DA
:1035700005C384E090E00E94863290934B058093CF
:103580004A05F801E150F047E232F10508F03CC28B
:10359000E950FD4C0C9404321093D6030093D503EC
:1035A0000E94760A6093D1037093D2038093D30371
:1035B0009093D4031092D0031092CF0320CF82FBBC
:1035C000882780F95DCF211409F45CCF80FF5ACFA2
:1035D000D6018D909C900815190519F4211409F451
:1035E00051CFE885F985EC15FD0509F44BCFD601DF
:1035F0001D96ED91FC91309721F08081811509F4A1
:1036000041CF632DC6010E946007811509F43ACFAE
:1036100081E00815190509F080E082218F8381146B
:10362000910441F0811106C0EC85FD858E169F0640
:1036300009F028CF80E00E942214D092CE03C092DD
:10364000CD0381E08093CC038FE08A9DF0018B9DB8
:10365000F00D1124EC5AFC4F8581809353032F8188
:1036600021110EC08114910459F0808191819C0137
:1036700024503109213A310508F049C00E94B308AD
:103680008FE08A9DF0018B9DF00D1124EC5AFC4FC8
:10369000C680D780C6019A9581159F4110F440EEEF
:1036A000D42299249394C60101978F339E4708F042
:1036B000912C8FE08A9DD0018B9DB00D1124AC5AC6
:1036C000BC4F1996ED91FC911A97309731F01B96EB
:1036D0006D917C9181E0099598229114A9F08FE079
:1036E0008A9DF0018B9DF00D1124EC5AFC4F8681D0
:1036F00097810E94E5028093520388E048165104A6
:1037000048F4C6010E94820A0E942D0E0BC00E943E
:10371000360FB6CFC6010497813A910550F48C2D2F
:103720000E947F08BF81B11509F403CE0E942D0EBF
:10373000E7CD0E942D0EAFE3BCE91197F1F700C071
:1037400000008C2D0E94A20EEDCFDC012D913C914A
:103750000217130741F4211009C01092CC0380E036
:103760000E942214E6CD211409F4E3CDFC018085EA
:1037700085FDDFCDF4CFF9014485558566857785D4
:10378000C9010E942108D60115968C9181FFB5CE02
:10379000C6010E94DE1380915704909158040817C7
:1037A000190709F0AACE1092580410925704A5CE1A
:1037B00090911901892F8E7F90FF8160809319016C
:1037C0000E942E138091190180FF45C00832110517
:1037D00008F069C00E31110508F076C0C8010497E1
:1037E0004A9788F58091410584FD2DC0D701159633
:1037F0008C91811509F4D6C080916C0490916E046F
:10380000892B8D7F811509F464C010925E0410929B
:103810005D048091410581FD5CC060E0C8010E94AB
:10382000FD0660E0C8010E94240F80916C048D7F2A
:103830000E94750982E00E94F40362CD8091190113
:10384000816080931901F7018581811521F0109223
:103850005E0410925D04D70115968C91F801E85131
:10386000FC47E730F10508F077CEE75EFC4C0C949E
:103870000432809119018E7FA1CF809119018F7E32
:10388000013E110531F0053E110531F48091190119
:103890008F7D8093190196CFC80190528115904376
:1038A00008F090CF59CE0933110558F40D321105A7
:1038B00018F40B32110539F68091410582FDC3CF12
:1038C00095CF04361105F7CF8091410583FDBBCF1D
:1038D0008DCF89E0F701AFE5B4E001900D928A95B4
:1038E000E1F7109262041092610480915D0490915E
:1038F0005E0408171907C9F52091410525FF35C059
:103900003091190131FF02C026FF2FC020915B04C6
:1039100030915C046301C21AD30A0E941216C816C1
:10392000D90618F580916E0481FF08C080911901B5
:1039300080618093190182E00E94160480916E04D8
:1039400085FF08C08091190180628093190180E28F
:103950000E941604609119016695617080915D0462
:1039600090915E040E94240FCBCC80916C04D09087
:103970006E04D82AD1FADD24D0F88D7F0E94750913
:1039800010935E0400935D0470925C0460925B048B
:10399000DD0C6894D2F890911901997FD92AD092C0
:1039A000190148CF40E0B301C8010E944D13A8CCD3
:1039B00006E221EE41EE6AE17CE70E943016A0CCDF
:1039C00007E225EE45EE6BE17CE7F7CF06E221EE5C
:1039D00040EE68E17CE7F1CF07E225EE44EE69E1D5
:1039E0007CE7EBCF06E221EE42EE6CE17CE7E5CF2F
:1039F00007E225EE46EE6DE17CE7DFCF08E221E04D
:103A000045EE6EE17CE7D9CF80914A0581608093D5
:103A10004A0560914A0570914B0584E090E00E9450
:103A2000BA320E94A60F6CCC80914B0588608093BF
:103A30004B05EFCF80914A058260E9CF80914A051E
:103A40008460E5CF80914A058860E1CF80914B0585
:103A50008160EDCF80914B058260E9CF80914A056E
:103A60008061D5CF80914A058062D1CF80914A058F
:103A70008064CDCF0E94A60F80914A058068C7CF91
:103A800080914A058C60C3CF80914B058360CFCF76
:103A900080914A058E7FBBCF80914B05877FC7CF32
:103AA00080914A058D7FB3CF80914A058B7FAFCF40
:103AB00080914A05877FABCF80914B058E7FB7CF32
:103AC00080914B058D7FB3CF80914A058F7E9FCF2C
:103AD00080914A058F7D9BCF80914A058F7B97CF40
:103AE0000E94A60F80914A058F7791CF80914A0559
:103AF000837F8DCF80914B058C7F99CF80914A0534
:103B0000992782FF939590FB82F990FB83F97FCFF1
:103B100080914B05982F909590FB80F990FB81F94F
:103B200086CF90914A05892F8F7B96FF80646FCF57
:103B30000E94A60F90914A05892F97FB87F980581C
:103B400066CF61E08EE090E00E949C3262CF60E040
:103B5000F9CF90914A05892F8F7E94FF806157CFCE
:103B600090914A05892F8E7F90FF816050CF909170
:103B70004B05892F877F93FF886059CF0631FCE77B
:103B80001F07C1F580916E043091400530FF04C0DD
:103B9000282F2474211122C0282F2A7A31FF04C033
:103BA000482F4171411120E032FF04C0482F48786E
:103BB000411120E033FF03C08272811120E0911592
:103BC00079F081E0211101C080E08093690485E3F0
:103BD000211101C089E20E947F08A8CD20E0DECF3C
:103BE00080916904811521F085E30E94B3089ECD80
:103BF00089E2FBCF07372CE71207F9F008373CE7DB
:103C0000130731F19801205E32452032310528F545
:103C100091113BC00F7181E090E0AC0102C0440FF4
:103C2000551F0A95E2F78A01642F83E090E00E9415
:103C30009C32802F0E943D0363CB81E0911551F0AF
:103C40000E94430343E062E081E00E94C90358CB35
:103C500082E0F4CF0E944F03F5CF9115B1F00A3501
:103C60005CE7150709F483C008F05AC001309CE7EF
:103C7000190709F47AC00330ACE71A0709F46FC0DA
:103C80000115BCE71B0709F45DC0F701878190852A
:103C9000009709F470C00E941905182FD92E86E0EC
:103CA000F701DE01119601900D928A95E1F7F70177
:103CB000C580968092948FE09822809172048770DC
:103CC000811501F18C2CC114F1F0892F807F803493
:103CD00061F080E2810F8830A8F0892F807E8032E9
:103CE00021F4123078F0911469F080914B0582FF35
:103CF00009C082E00E94F4038091720487708824D6
:103D000083948111812C8D2D82958F70A82EB12CDA
:103D10008C3008F061C0F501E05EFC4C0C9404327C
:103D20000B35ECE71E0729F180914B05002482FF3B
:103D30000394802D0C35FCE71F0709F0A6CF0E94E5
:103D40009D0CA3CF0E94A60F2FEF34E34CE021502F
:103D500030404040E1F700C000000E94C50A6FEF0C
:103D60007FEF80E090E00E94BA320E94D70F81E09E
:103D7000E6CF80E0E4CF8581C080D180811569F0F5
:103D8000C6010E94960D182F682FC6010E945F037E
:103D9000B601812F0E94790D7ECFC6010E94950346
:103DA000182FF6CF0D2D0F70F0E1DF1610F00295F1
:103DB000007FC11409F44AC0011559F080E2810F57
:103DC000883010F011113CC0802F0E9410040E9416
:103DD0002D0E812F0E94A20E28E0A21AB10834E015
:103DE000A316B10418F40E942608812C812F9D2D62
:103DF0000E941903811541F0C11409F411C29114F4
:103E000009F405C210924E058114A9F08091720444
:103E100080FD11C0F70115828695869586950E94D2
:103E20004303C7010E941C188091720486958695F1
:103E300086950E944F0360E0C7010E94020E71CA7E
:103E400080917104802B80937104C1CF812F0E94D7
:103E5000360F011509F280E2810F883010F0111140
:103E600004C0802F0E94160406C000958091710442
:103E70008023809371040E942D0EAECF0D2D0F7004
:103E80008D2D807F803211F00295007F111549F051
:103E9000113009F473C0C11409F47FC09114D9F032
:103EA00098CF80914B0582FD12C0C11449F00115D5
:103EB00029F0802F0E9410040E942D0E80E08ACFEE
:103EC00080E00E94360F011509F486CFCACFC114D5
:103ED00091F1911004C0802F0E947F0E7DCF41E0B0
:103EE000941211C070906C04802F8721081709F478
:103EF00073CF0E94E20890936B0480936A04702A47
:103F000070926C0469CF80914205823008F464CFCE
:103F1000981262CF802F0E947F0E802F0E945F092F
:103F200080916D04902F9823091709F455CF802BA9
:103F300080936D0451CF911012C0802F0E94900E7B
:103F4000802F0E945F0980916D04902F9823911516
:103F500009F442CF0095082300936D043DCF809172
:103F60004205823008F438CF51E0951235CF809168
:103F70006E048023811509F42FCFDFCF809148058F
:103F8000C11421F0891508F427CFA5CF981608F0A1
:103F900023CF802F0E94900E1FCF9114D1F38091D8
:103FA000460590914705193321F080914405909181
:103FB00045050E94290C812F0E94360F0DCF8D2DB3
:103FC000869586958370811569F0813009F004CF5C
:103FD000812F9D2D9370C11002C080E090E00E945F
:103FE0005908FACE812F9D2D9370C11002C080E038
:103FF00090E00E943308F0CE6C2D812F0E94B10911
:10400000EBCE8D2D8370811133C0C110E5CE412FD1
:10401000429546954770440F440F812F8F70042EB0
:1040200001C0880F0A94EAF7212F207114FF07C0FE
:104030002FE030E001C0220F4A95EAF720953D2D90
:10404000369536953370323071F0333051F04091FF
:104050002405313029F0822B84230E943D03BCCEFD
:10406000842B822BFACF822B909124058927F5CFC0
:10407000C11459F1D0FEB0CE412F429546954770FC
:10408000440F440F812F8F70042E01C0880F0A94B3
:10409000EAF7212F207114FF07C02FE030E001C0A4
:1040A000220F4A95EAF720953D2D369536953370C7
:1040B000323089F0333069F040912505313041F0DC
:1040C000822B84230E94400387CE8230A8F684CEC0
:1040D000842B822BF7CF822B909125058927F2CF55
:1040E0000D2D0F70C11429F0802F0E944303812FE2
:1040F000F3CE812F0E94900E802F0E944F036CCE32
:10410000123F71F160F4103FB9F0113F81F0C1141A
:1041100009F478C091105DCE8D2D8F7125C0133FAD
:1041200031F1143FA1F780914B0582FD2CC08D2DFC
:104130008F71C11411F318C080914805C11461F04A
:10414000981608F049CE2D2D2F7181E090E001C026
:10415000880F2A95EAF7C0CF891508F43DCEF3CF32
:104160008D2D8F71C110C9CF0E94430335CE80E0E1
:10417000C11409F4A7CF81E09D2D9F7101C0880F64
:104180009A95EAF79FCF80914205823048F1C11499
:10419000C9F0909172049770943059F4109272049F
:1041A00010927404109273048D2D8F710E944F032E
:1041B0001ACE63E0981608F016CE8D2D8F710E94EE
:1041C000470911CE981640F01092720410927404B0
:1041D0001092730464E0F1CF81E00E94F40303CEF7
:1041E000C11431F063E08D2D8F710E944709F4CD29
:1041F00081E00E94F40382E0981608F4EDCD0E945D
:10420000F403EACD9110CBCE8D2D8F7176CF8091B6
:10421000700480936F0480916E0480937004F4CDD9
:1042200040E060E089819A810E94E40D8A879B8743
:1042300000916E04911429F010924E0500937004C1
:10424000E3CD80914C0590914D05AA85BB85A817BB
:10425000B907A1F78091430583FFEECF80914E050A
:10426000811551F380916F040E947F0E812F0E946F
:10427000990F80916F040E94900EDECFA0E0B0E015
:10428000E4E4F1E20C941C3280912703803108F0C1
:1042900049C080912603811509F444C0C091D80219
:1042A00089E0D82E8091D7028C17E1F1EC2EF12C09
:1042B000DC9EE0011124FE01E752FD4F848181154F
:1042C000B1F1918180912203981331C09081809146
:1042D000210398132CC08581811129C0028113818B
:1042E0008091230390912403081B190B60E081E265
:1042F00093E00E94020E0E94121608171907B8F4E4
:10430000809127038F70806180932703C152DD4F16
:1043100088818F708061888381E293E00E941C18FD
:104320000E94EA03CDB7DEB7E7E00C943832E7012C
:104330002196C770B7CFAFE0B0E0E1EAF1E20C94AC
:1043400014328C0186E0F801DE011A9601900D927C
:104350008A95E1F7D80115966C90159714965C90A4
:1043600081E2A82E83E0B82E80912503811118C028
:10437000511499F0611409F4CBC1C8010E94D00D09
:10438000811509F4C5C189E0F801A1E2B3E001900B
:104390000D928A95E1F70E943E21FF24F39451C0CB
:1043A000F801C0807180E280F38060E081E293E0F8
:1043B0000E94020ED0902603809123039091240343
:1043C0004701881A990A60E081E293E0D11409F468
:1043D00044C10E94020E0E9412168816990608F027
:1043E000F7C05114D1F280912203D80111969C910B
:1043F000B0902703B0E1BB1608F0A1C0F62C9813CB
:1044000025C090912103F801808198131FC020914D
:104410002803309129038781908528173907B1F443
:10442000611078C08B2D8F7080618093270381E2AB
:1044300093E00E941C1880912703D80116968C9354
:10444000F12C8F2D2F96EFE00C943032611062C06A
:10445000E091D8028091D702AE2F99E0A81302C054
:1044600099E02AC02A2F30E09A9FD0011124A75248
:10447000BD4F11964C911197741207C04C91C41204
:1044800004C015964C9141114DC1D9011196A770E8
:10449000E5CF2E2F30E09E9FF0011124E752FD4F13
:1044A0004181741206C04081C41203C0458141118C
:1044B000C7CFF9013196E7708E13EBCF8A859B85C4
:1044C0000E94C10D292F22952F70903448F02A5F49
:1044D0002F702230C8F0C8010E941C18FD2CB1CFEB
:1044E0009F70223038F0911551F0F801968190318B
:1044F00030F4A7CF911519F0811509F4A2CF805E91
:10450000883008F49ECFE7CF803F08F49ACF815FD0
:104510008330F7CF809127038160809327038091B8
:10452000430581FD8DCF81E293E00E941C1889E054
:10453000E1E2F3E0DF011D928A95E9F781CF98135C
:1045400021C090912103D8018C9198131BC0209118
:1045500028033091290317968D919C91189728175D
:10456000390781F461100EC01696BC92C8010E94F2
:104570001C1889E0F801A1E2B3E001900D928A9540
:10458000E1F70BCFC8010E94D00D811509F4C0C01E
:10459000611409F4BDC080912703803208F4F3CE82
:1045A00080912103909122039A838983FC82EB827C
:1045B000809125038D831E82BF8280912803909174
:1045C000290399878887CE0101960E941C18DBCEAB
:1045D000D0902703B0E1DB1608F4A5CF511409F4FD
:1045E000DCCE90912203F801818198131AC090913A
:1045F00021038081981315C020912803309129034D
:10460000878190852817390761F461100AC0D68226
:10461000C8010E941C1889E0D5011D928A95E9F70E
:10462000BCCEC8010E94D00D811509F471C061147F
:1046300009F46EC080912703803208F4A4CE8091E3
:104640002103909122039A838983FC82EB828091DB
:1046500025038D831E82DF82B0CF0E94020E0E944E
:1046600012168816990608F057C0511409F495CE11
:10467000611409F44DC090912203F80181819813CF
:104680003DC0909121038081981338C02091280368
:1046900030912903878190852817390779F5C090D3
:1046A0002303D090240360E081E293E00E94020E95
:1046B0008091430582FD5DCFEC18FD0880913E0599
:1046C00090913F05E816F90608F053CF8091270333
:1046D00080FD4FCF803108F44CCFD80116968C93D3
:1046E0001697982F907F903F09F440CF982F907F96
:1046F000905F8F70892B16968C9338CFC8010E94DB
:10470000D00D811140CE80912703816080932703D3
:10471000C8010E941C1841CE89E0F50111928A95CA
:10472000E9F78ECE9091430590FF9ACEFCCEA2E1A0
:10473000B0E0EDE9F3E20C941F320A871B872C8767
:104740003D874E875F87688B798B8A8BCE010A966F
:104750000E949B21811128C02091D7023091D8025C
:1047600089E0FE013A96DE01119601900D928A953C
:10477000E1F78E858115C1F0822F90E00196877058
:10478000992738171906D9F099E0929FD001112482
:10479000A752BD4FFE01319601900D929A95E1F717
:1047A0008093D7020E94EA0319E08091D802909189
:1047B000D702891312C06296E4E00C943B320E9447
:1047C000A60F1092D7021092D80289E0E1E2F3E03E
:1047D000DF011D928A95E9F7E7CF189FC0011124E8
:1047E00087529D4F0E949B21811529F38091D80209
:1047F00090E00196877099278093D802D6CFEF92E8
:10480000FF920F931F93CF93DF9380912105E09147
:10481000F801CDE0811131C0CDB7DEB7E6E00C94F0
:104820003932D1E0DE0FD093F801EE2EF12CCE9F7D
:10483000F0011124E754FB4F84818115E9F0878151
:104840009085892B21F481859285019659F4008108
:1048500011812281338144815581668177818085F0
:104860000E949723CE9DF001CF9DF00D1124E754B7
:10487000FB4F148210927104ED2F80912105E817EF
:1048800080F2109221051092F801C6CFA4E0B0E0AA
:10489000ECE4F4E20C9412322091B804298397E0FE
:1048A000992EEE24E394F12C3DE0332E44E0542E77
:1048B000662463948091B7049981891308C00E948B
:1048C000FF230E9423072496E1E10C942E32798184
:1048D000672F70E07C836B83FB01EE0FFF1FE355B6
:1048E000FB4F80819181989ED001999EB00D11243B
:1048F000FD01EB58FB4FFA83E983248121115BC052
:1049000070902105E9EBF4E040E050E0812C471580
:1049100008F04FC0A384B484A981BA81CD90DC9003
:104920000FEF1FEF412C242D30E0B601640D711DF7
:10493000640D711DDB016D917C916115710539F07C
:10494000A616B70609F0980143948901ECCF0F3FF2
:104950001007D1F1B701002E01C0660F0A94EAF7E3
:10496000862AB701042C02C0660F771F0A94E2F76B
:104970009B01215031098216130629F5349EF0015E
:10498000359EF00D1124E754FB4F989ED001999E5F
:10499000B00D1124AB58BB4F12962D913C9113973B
:1049A00030872783548210821182928781871596DF
:1049B0006C920E9434078B819C8101969A83898333
:1049C0008370898377CF14824F5F5F4F3D969FCF6F
:1049D000109223051092220510921A018091B704BB
:1049E0008093B8040E9423070E94FF230895AEE13C
:1049F000B0E0EDEFF4E20C9411324B8B5C8B6D8BDD
:104A00007E8B8F8B692F988F192F811509F475C0B4
:104A100040E08B899C890E94E40D7C01111549F0CE
:104A200010924E0590934D0580934C0510927104A1
:104A30000AC080914C0590914D058E159F0519F483
:104A400081E080934E05188A198A1A8A86E0FE0151
:104A50007396DE011A9601900D928A95E1F7809186
:104A60004B0582FF21C08091280590912905892B53
:104A7000D9F00E94E2082091730430917404821BE3
:104A8000930B20912805309129058217930738F060
:104A90008091720482FD03C082E00E94F4030E94B0
:104AA000EE0881110E941E048E858115D1F061E00F
:104AB000CE010A960E94020E61E0CE010A960E9483
:104AC000020E61E0CE010A960E94020E6C01803552
:104AD0002CE79207B1F48F85811541F181E0809335
:104AE0001A010A851B852C853D854E855F85688961
:104AF00079898A890E949723D6C0911509F4A3CF9A
:104B000095CF81354CE7940731F48F85811571F08D
:104B10000E94E824E6CF82359C4741F48F858115B9
:104B200029F080911A018111F3CFD8CFE5E7EE2E5D
:104B3000E4E0FE2E512CA12CB12C4F84D7016D91B5
:104B40007C9122242A9433243A9480E0282F30E068
:104B5000FB01E80FF11DE80FF11D40815181411566
:104B6000510539F0C416D50609F091018F5F19017E
:104B7000EDCF10E0BFEF2B163B0609F452C0F70152
:104B8000448110911A01411110E0D70115967C90D3
:104B9000159716962C911697411409F409C1111511
:104BA00009F406C180903C0590903D05711015C038
:104BB00041E050E0022C01C0440F0A94EAF7242B94
:104BC00016962C932091B5043091B604281539051A
:104BD00020F49092B6048092B50421E030E0F9010F
:104BE00002C0EE0FFF1F8A95E2F7CF010197D701B0
:104BF00016962C9128171906A1F460902205709042
:104C000023056114710409F452C00E94E208861958
:104C100097098816990608F04AC081E0F701848355
:104C200011E0512AFFEFAF1ABF0A27E0E20EF11C94
:104C300048E0A416B10409F080CF411409F414C16E
:104C4000511409F411C10E94E20890932305809346
:104C5000220580912105883030F591E0980F9093DE
:104C6000210599E0FE013A96DE01119601900D9220
:104C70009A95E1F75DE0859FC001112487549B4F11
:104C800029E0FE013196DC0101900D922A95E1F7B1
:104C90002FEF3FEFDC011A963C932E9319971C9649
:104CA000DC92CE921B976E96E2E10C942D3220910D
:104CB000B8048091B704922FE0E0F0E037E061E0C3
:104CC000281709F448C0422F50E0DA01AA0FBB1F91
:104CD000A355BB4F8D909C909A8E898E389DD001A4
:104CE000399DB00D1124AB58BB4F8D909C909E8E7A
:104CF0008D8E812C70E0912CAD8DBE8DA90DB11DD6
:104D0000A90DB11D6D907C9061147104E1F0D70183
:104D10000D90BC91A02DBC8FAB8F70E007C001E05F
:104D20006A167B0609F000E0802A7F5FAB8DBC8DA0
:104D3000A70FB11DA70FB11D0D90BC91A02D10970D
:104D400071F79394D9CF811481F17915C0F421E0E2
:104D5000F7012483F7019093B804EE15FF0509F4D9
:104D600060CF90E0FC01EE0FFF1FE355FB4FB182D7
:104D7000A0820196837099278093B70452CF898CC3
:104D80009A8C389DF001399DF00D1124EB58FB4FA2
:104D90006483EE15FF05F1F2291302C09F5F937043
:104DA0004F5F5F4F242F23708BCFE0E0F0E0F8CF10
:104DB00030E0711021C061E070E002C0660F771F23
:104DC0008A95E2F7CB0101972817390779F010E0AF
:104DD00081E090E0022C01C0880F0A94EAF7982F36
:104DE0009095F7018681892386831BCF411581F336
:104DF000C5010E943407EBCFA901022C02C05595D2
:104E000047950A94E2F7C901019782239323892BDE
:104E100041F540FF26C0D70112968D919C91892BB8
:104E2000D9F087E0FE013196DF011D928A95E9F7FE
:104E30000E94E2089C018B839C8384E08D83F701B0
:104E400092818381792F9887898709811A8144E02B
:104E50005E816F810E949723D70115961C92172DB2
:104E6000B7CF142F1170B4CF9091B8048091B704CC
:104E7000981739F00E944624B1E05B1609F413CF6D
:104E800030CE0E94FF2310922305109222050E942B
:104E90002307F2CFA6E0B0E0E0E5F7E20C941F3282
:104EA0000E94E2088C018091AB029091AC028017C5
:104EB000910779F019821A820E94E208BC014981A7
:104EC0005A8180E090E00E94F7241093AC02009396
:104ED000AB022696E4E00C943B32A6E0B0E0E3E7B8
:104EE000F7E20C9421329C019093A8028093A702D0
:104EF000211580E2380738F4C9010E940E0F26966A
:104F0000E2E00C943D3280EF89838A830E94E208BC
:104F10008160BC0149815A8181E091E00E94F724BF
:104F2000EECFA6E0B0E0E7E9F7E20C9421329C0175
:104F30009093A8028093A702211580E2380738F4E5
:104F4000C9010E94690F2696E2E00C943D3280EF81
:104F500089838A830E94E2088160BC0149815A8169
:104F600081E090E00E94F724EECFCF93DF93D82F1B
:104F7000C92F0E946D2780914405909145050E949C
:104F8000290C8D2F9C2F0E949127DF91CF9108959E
:104F90000F931F93CF93DF938C01862F68E473E008
:104FA0000E94FD15892BA9F4C0914803D0914903B3
:104FB000209779F0F8018281833051F4CE010E946C
:104FC000B527CE010E94B527CE010E94B52701C0AA
:104FD000D8F7DF91CF911F910F9108950F931F93F1
:104FE000CF93DF938C01EB0168E473E08C2F0E9478
:104FF000FD15892B09F05AC0FE01FF27D801129632
:105000008C911297E659FD4F8130A9F415968C9139
:1050100082FD51C080FF4FC082E0808380914A03AF
:1050200090914B030097B9F4809148039091490304
:105030000097E1F110C08230B9F515968C9182FD90
:1050400028C080FD0BC083E0808380914C03909149
:105050004D03009701F10E946D2728C084E08083F2
:1050600080914E0390914F030097A9F780914803D8
:1050700090914903009711F10E94B52780914A034E
:1050800090914B03009739F7809148039091490321
:10509000E2CF85E080838091480390914903009797
:1050A00029F00E94B527F0CF86E08083DF91CF9171
:1050B0001F910F91089581E08083B6CF80914A03BC
:1050C00090914B03B5CF0F931F93CF93DF938C0138
:1050D000EB0168E473E08C2F0E94FD15892BA1F48D
:1050E00080914405909145050E94290CDD27C65901
:1050F000DD4F8881F801128218828330F1F048F484
:10510000813059F0823081F0DF91CF911F910F9162
:1051100008958430B9F08530B9F7809148039091B3
:105120004903009789F306C080914A0390914B038D
:10513000009799F30E949127E7CF80914C039091BB
:105140004D03F6CF80914E0390914F03009791F756
:10515000209148033091490380914A0390914B0379
:1051600021153105F1F2009729F7C901E3CFCDB739
:10517000DEB7AC970FB6F894DEBF0FBECDBF85B7D4
:10518000806885BF85B7806885BF84B7877F84BF07
:105190000FB6F894A89580916000886180936000B4
:1051A000109260000FBE80E890E00FB6F8948093F4
:1051B0006100909361000FBE81E0809317018CE144
:1051C00096E09093AF018093AE010E9446060E9444
:1051D0003A150E947E150E94240D0E947F0B0E94AA
:1051E000CE0B8091E20084608093E20078948091FD
:1051F000A602811599F08091E9001091EC008F7062
:10520000179511271795182B1092E9008091E80047
:1052100083FD0E945E101F701093E90082E084BD40
:1052200093E095BD9AEF97BD80936E000E94140E97
:10523000811102C00E942A1503E311E0D8018D916B
:105240008D018F3F11F00E941E06B1E008331B074D
:10525000A9F708E311E0F80181918F018F3F11F068
:105260000E941E06F1E002341F07A9F78AE0EAE96E
:10527000F2E0DF01282F1D922A95E9F7E2E7F2E03C
:10528000DF011D928A95E9F780E090E00E94863266
:10529000853E9E4F21F40E94140E811163C065EE7D
:1052A0007EEF80E090E00E94BA3260E082E090E021
:1052B0000E949C3281E08093240561E083E090E0CD
:1052C0000E949C3260E074E184E090E00E94BA3277
:1052D00060E086E090E00E949C3260E087E090E031
:1052E0000E949C3240E050E0BA0188E090E00E94C9
:1052F000AE3260E083E290E00E949C3260E08CE09D
:1053000090E00E949C3260E08DE090E00E949C3230
:1053100019821A821B821C821D821E821F8218869D
:1053200048E050E067E170E0CE0101960E948C32C7
:1053300040E050E0BA018FE190E00E94AE3280E0A0
:105340000E94EB0C0E942A1540E050E0BA018FE069
:1053500090E00E94AE3240E050E0BA0183E190E07C
:105360000E94AE3282E090E00E947E3280937E0204
:1053700084E090E00E94863290934B0580934A052A
:105380000E94C416EFEFF6E721E0E150F040204024
:10539000E1F700C000000E94C41680919A0280FFCD
:1053A00008C06FEF7FEF80E090E00E94BA320E9469
:1053B000C50A83E090E00E947E320E943D0384E0B3
:1053C00091E09093CE028093CD028091A602853029
:1053D00049F48091A602853009F460C00E94A60FAE
:1053E0000E9426080E94C416AFE76A2EA2E07A2E19
:1053F0000AE912E0D801F301219131918D919D913B
:1054000042E0E938F40709F480C028173907A1F30E
:10541000FAE9AF2EF2E0BF2E912CD501ED90FD9070
:105420005D01F301819191913F018E159F0579F105
:105430009C012E253F253CA72BA7812CCC24C3946F
:10544000D12C8BA59CA58C219D21892BB9F089821B
:105450009A820E94E2089C838B8331E03D8391E035
:1054600097012C213D21232B09F490E09E83498153
:105470005A816B817C818D810E94F7248394CC0CAE
:10548000DD1C4AE08412DDCFF301F292E2929394A4
:1054900085E09812C2CF0E94760A3DC08091A60294
:1054A000843021F110927C0288E190E0A0E40FB6F4
:1054B000F894A895809360000FBEA093600083B716
:1054C000817F846083BF83B7816083BF7894889530
:1054D00083B78E7F83BF0FB6F894A8958091600044
:1054E000886180936000109260000FBE0E94C41615
:1054F000EAE9F2E081919191892B09F094C524EABF
:1055000032E02E173F07B1F764CF2817390709F0AB
:105510007FCF0E944A27E090CF03F090D003E114A0
:10552000F10491F180908D0290908E02A0908F02F4
:10553000B09090020E94760A681979098A099B093D
:105540008090890290908A02A0908B02B0908C0289
:10555000681579058A059B05B8F0C7010E940E0FF2
:105560001092D0031092CF0310928D0210928E02EF
:1055700010928F02109290021092890210928A0269
:1055800010928B0210928C02C0905704D090580455
:10559000C114D10439F1A0905904B0905A040E946A
:1055A000E2087C01EA18FB08C6010E9412168E155B
:1055B0009F05C0F42091570430915804C9019927E0
:1055C000287F3327232B09F00DC164E0880F991F32
:1055D0006A95E1F789529C4FDC0115962C9122FFC8
:1055E0000E94FB1380911A01811519F1E0902205A8
:1055F000F0902305E114F104E1F00E94E2088E1915
:105600009F092091B5043091B6042817390788F412
:105610009091B8048091B704981709F4E6C00E94ED
:1056200046241092B6041092B504109223051092ED
:1056300022058091410580FF1DC08091190182FFE4
:1056400019C00E94E2081C0180915B0490915C04E7
:105650009101281B390B80910E0190910F012817A1
:10566000390740F041E0B10180915D0490915E0402
:105670000E944D1386E0E2E4F3E0DE011196019012
:105680000D928A95E1F790904303B0904403C09047
:105690004503A0904603D090470310924403109214
:1056A000450310924603109247038C2D8B298115D8
:1056B000A1F0E0909302F09094020E94E2089C0115
:1056C0002E193F0990914003911509F497C08091DC
:1056D00013018217130608F49FC08D2D8A298115A6
:1056E000A1F0E0909102F09092020E94E2089C01E9
:1056F0002E193F0990913F03911509F4BDC0809187
:1057000011018217130608F4C5C080914303981253
:1057100019C080914403811511F08B1113C02091A1
:105720004503211511F02C110DC0909147039115DF
:1057300011F09D1107C030914603311103C0822B37
:10574000892B81110E94890986E0FE013196A2E42D
:10575000B3E001900D928A95E1F70E94260890919E
:105760009502891721F0809395020E94760A809114
:10577000A602843009F029CE83E08093E90080916D
:10578000E80082FF22CE8091E80090E085FF06C00D
:105790000E944E0B811509F4ADC091E08091E800A4
:1057A0008B778093E800911509F40FCEE090A90261
:1057B000F090AA02E981E114F10409F4BAC0EE3FC5
:1057C00009F0DBC08A81833020F08550833008F0F7
:1057D000D4C0EA81EE3008F0D0C0F0E0E45DFC4CCB
:1057E0000C94043280E090E0F7CE0E94FF231092E8
:1057F0002305109222050E9423071BCF409112011E
:10580000BAE04B9FA00111244217530708F065CF5F
:105810009F5F9093400302C09F3FD1F7B11459F0AE
:105820000E948F0791E01B140CF09FEF899F802D41
:10583000112480934403C11459F00E948F0791E012
:105840001C140CF09FEF899F802D11248093450339
:1058500080914403811509F440CFF0904503F11481
:1058600009F43BCF0E948107809344038F2D0E944F
:1058700081078093450331CF40911001EAE04E9FAC
:10588000A00111244217530708F03FCF9F5F909368
:105890003F0302C09F3FD1F7A11459F00E94E807CF
:1058A00091E01A140CF09FEF899F802D11248093B2
:1058B0004603D11459F00E94E80791E01D140CF042
:1058C0009FEF899F802D1124809347038091460389
:1058D000811509F41ACFF0904703F11409F415CF9C
:1058E0000E948107809346038F2D0E948107809339
:1058F00047030BCF50E2E52EF12C9E012F5F3F4F67
:1059000069018091E80085FD0AC08091E8008B77ED
:105910008093E8000E944E0B811599F33ECF809151
:10592000F100D6018D936D01B1E0EB1AF10849F752
:1059300034CFE43150F4E11559F0E150E33140F453
:10594000F0E0E65CFC4C0C940432EE3F09F441CFED
:105950008FEF95C31A8289E08B830FC08A818230D2
:10596000A9F08330E1F0813099F70E94760A0E9415
:105970000A326B837C838D839E8340E250E0BE01BC
:105980006F5F7F4F82E00E94370C1FCD87E290E06F
:105990000E947E321B821C821D828E83EECF8091FC
:1059A000A4029091A502892B41F3FE013196D80102
:1059B0008C9111969C910E5F1F4F92838383329638
:1059C000B2E0043A1B0799F7D8CF8A81823009F0F8
:1059D000BFCF6B817C818D819E810E940A3287E2DC
:1059E00090E00E949C32C9CF4C816B818A810E94D9
:1059F0004A0D9827892798279E838D83BECF2D81B6
:105A00003E813227232732274C816B818A810E9475
:105A1000B40CB3CF0E948114B0CF80E18A83ADCFA4
:105A200081E08A8384E398CF8C81E82EF12C8D313C
:105A300008F0A3CF0A811B81102701271027E00E51
:105A4000F11E6E01E5E0CE0ED11CE016F10609F460
:105A500094CF80E00433F1E01F0728F4C801845399
:105A60009D4F0E947E32D6018D936D010F5F1F4FB7
:105A7000ECCF8091A4029091A502892B09F47DCFEF
:105A80008C81C82ED12C8D3108F077CF0A811B81F3
:105A9000102701271027FE0131967F01CE0EDF1E51
:105AA000CE14DF0409F469CF043331E0130740F466
:105AB000D70114966C91C80184539D4F0E949C326B
:105AC0000F5F1F4FBFEFEB1AFB0AEACF0E94DB0C00
:105AD00054CF84E0A3CF8C81E82EF12C8D3108F0D7
