:100000000C9448010C9465010C9465010C946501F5
:100010000C9465010C9465010C9465010C946501C8
:100020000C9465010C9465010C94231C0C94F61C33
:100030000C9450170C9465010C9465010C946501A7
:100040000C9465010C9465010C9465010C94650198
:100050000C9465010C94D7170C9465010C94650100
:100060000C9465010C9465010C9465010C94650178
:100070000C9465010C9465010C9465010C94650168
:100080000C9465010C9465010C9465010C94650158
:100090000C9465010C9465010C9465010C94650148
:1000A0000C9465010C9465010C94650127002600F1
:1000B0002500240023002200210020001F001E0034
:1000C000130012000C0018001C0017001500080097
:1000D0001A0014000F000E000D000B000A000900AA
:1000E0000700160004000000280052001000110054
:1000F0000500190006001B001D00E1004F00510023
:1001000050002C002C002C00E200E300E000000076
:1001100016037400610062006500730063006F00E5
:100120005F003400380000001A03690073006100AA
:100130006100630020007400750072006E006500AD
:10014000720000000403090409023B00020100A040
:10015000FA09040000010301010009211101000155
:10016000224400070581030800010904010001037E
:1001700000000009211101000122B60007058203D9
:100180002000011201000200000008EDFE781200BC
:10019000010102000105010902A10185020901A175
:1001A0000005091901290815002501950875018127
:1001B000020501093009311581257F9502750881F5
:1001C0000609381581257F950175088106050C0AF9
:1001D00038021581257F950175088106C0C005018B
:1001E0000980A101850319012AB700150126B7006E
:1001F000950175108100C0050C0901A10185041944
:10020000012AA002150126A002950175108100C0E7
:1002100005010906A1018506050719E029E7150072
:1002200025019508750181020507190029EF1500C0
:10023000250195F07501810205081901290595052B
:1002400075019102950175039101C005010906A18F
:1002500001050719E029E7150025019508750181B9
:10026000029501750881010507190029FF1500266F
:10027000FF0095067508810005081901290515007C
:100280002501950575019102950175039101C00045
:1002900011241FBECFEFDAE0DEBFCDBF11E0A0E03A
:1002A000B1E0EAE8FFE302C005900D92A639B1077C
:1002B000D9F722E0A6E9B1E001C01D92A33BB20745
:1002C000E1F70E94BC100C94711F0C940000811186
:1002D00012C0653080F44A3070F4E42FF0E08AE018
:1002E000689FE00DF11D1124EE0FFF1FE455FF4F35
:1002F00085919491089581E090E008950E946701AE
:10030000089581E008950E948101089581E0089593
:1003100081E008950E948801089508950E948D014A
:100320000895A6E0B0E0E7E9F1E00C94CD1E498322
:100330005A839E8330919D0189819A8131111AC01F
:100340003E81311599F0211589F00E945307182F2D
:10035000682F89819A810E942F0769817A81812F74
:100360000E944B0E2696E3E00C94E91E0E94410782
:10037000182FF3CF0E94530769817A81F1CFFC01D6
:10038000262F4081518162817381848195810E94F1
:1003900091010895CF93DF93D82FC92F61E00E9478
:1003A000BF016D2F7C2F0E948301DF91CF910895B3
:1003B000CF93DF93D82FC92F60E00E94BF016D2F2C
:1003C0007C2F0E948E01DF91CF91089521E030E0D3
:1003D000A90102C0440F551F8A95E2F7CA010E9485
:1003E00051060895CF93C82F81E090E00C2E02C0F3
:1003F000880F991F0A94E2F70E94B00B8C2F0E947D
:10040000E601CF91089581E008950E9403020895C6
:10041000CF93C82F0E94FB058C2F0E9405022FEF5F
:1004200084E39CE0215080409040E1F700C0000050
:10043000CF91089581E00E9408020E94FB17089561
:1004400080E00E9408020E940C1808950F931F93E9
:10045000CF93DF938C0161E00E94BF01EC01B801F2
:100460000E948A018115E1F1B801CE010E94CD14EC
:100470008115B1F1B801CE010E942211811581F1DF
:10048000B801CE010E94F710811551F1B801CE01DB
:100490000E944E0F811521F1F8018581811581F0AF
:1004A000CA35FCE7DF0739F178F4C130ECE7DE0745
:1004B000F9F0C330FCE7DF07C9F0C115DC4771F084
:1004C000C8010E9486010DC0CB35ECE7DE07B1F014
:1004D000CC35DC47A9F70E94820BF2CF0E941A02AA
:1004E00080E0DF91CF911F910F9108950E94930BAF
:1004F0000E942002F5CF0E948B0BE2CF0E948F0B4F
:10050000DFCF0E942C170E94A10208950E94A5022D
:100510000E943117089581E008950895CF93DF93E5
:10052000D82F0E948B02C82F811519F08D2F0E94A1
:100530008D028C2FDF91CF91089508950E948E0235
:10054000089580E00E949E0208950E9414150E9462
:100550009E020895CF930E941415C82F8091980190
:100560008C1779F0C09398010E94BC176093990191
:1005700070939A0180939B0190939C018C2F0E9411
:100580009E02CF910895ADE0B0E0E9ECF2E00C946A
:10059000CE1E488759876A877B878C879D879111F4
:1005A0000E948E0A1F8286E0FE013896DE011196B7
:1005B00001900D928A95E1F78D8181110DC02981FD
:1005C0003A814B815C816D817E818F810E94D80947
:1005D0002D96E2E00C94EA1ECE0101960E94CA011B
:1005E0008111EDCFF5CFFC018481813021F4808130
:1005F00091810E9485070895611529F00E94881253
:100600000E94491308950E94D112FACFCF93C82FA8
:10061000811599F08CEF8C0F813A88F48C2F0E9411
:10062000B815811529F08C2F0E9461160E94240BA9
:100630008C2F0E9447160E94240BCF91089580E2D0
:100640008C0F883048F4C77081E001C0880FCA95CC
:10065000EAF70E946F0AEFCF8BE58C0F833038F4F6
:100660002C2F2452330BC9010E944A15E6CFE8E52E
:10067000EC0FEB3150F4F0E0EE0FFF1FE65EFE4FA3
:10068000808191810E947015D8CF83E38C0F8331D4
:10069000A0F661E08C2F0E94FC02CFCF811581F182
:1006A0009CEF980F913A28F40E9461160E94240B47
:1006B000089590E2980F983050F4877091E001C04F
:1006C000990F8A95EAF7892F0E94750AEFCF9BE56B
:1006D000980F933028F480E090E00E944A15089526
:1006E00098E5980F9B3128F480E090E00E94701507
:1006F000089593E3980F933118F460E00E94FC0290
:1007000008950F931F93CF93C82F8B010E94060368
:100710000115110539F48C2F0E944E03CF911F91C2
:100720000F9108958FE99FE00197F1F700C0000055
:1007300001501109EDCF60E570E0893311F060E000
:1007400070E00E9481030895811521F00E946F0AD4
:100750000E94240B0895811521F00E94750A0E94C1
:10076000240B0895A0E0B0E0E8EBF3E00C94C81E81
:100770006C01D62FC72FFC011581068102950F70E1
:100780000E94640AE82E8115F9F0E12E1115E1F0BE
:100790008C2F807F803461F080E28D0F8830F0F004
:1007A0008C2F807E803221F4D230C0F00115B1F060
:1007B00080918D0282FF12C082E00E94550B0E9440
:1007C000640A91E0E82EE926EC2FE295EF70C03C38
:1007D000B0F5F0E0ED58F04E0C94B81EE12CF4CFDB
:1007E0000C2F0F70C03110F00295007F111599F099
:1007F000011559F080E28D0F883010F0D11107C03B
:10080000802F0E946F0A0E94240B8D2F51C0802FD1
:100810000E94800AF8CF8D2F0E944E03011579F0B7
:1008200080E28D0F883010F0D11104C0802F0E941B
:10083000750A03C0802F0E94860A0E94240BE114CF
:1008400089F00E94600A80FD0DC0F60115820E94A9
:100850005A0A0E948D06C6010E94C2050E945A0AC9
:100860000E949D06CDB7DEB7E8E00C94E41EFC2F95
:10087000FF70FF2EC07FC03219F0F29480EFF82293
:10088000D11541F0D130D1F1111509F444C0011551
:10089000F1F0BBCF80918D0282FD15C0111559F08A
:1008A000F11429F08F2D0E946F0A0E94240B80E022
:1008B0000E940603C4CF80E00E944E03F11409F4A5
:1008C000BECF8F2DB4CF111569F0011104C08F2D4B
:1008D0000E94A403B4CF013009F0B1CF8F2D0E9444
:1008E000A60AADCF0111ABCF8F2D0E94AB038F2D88
:1008F0000E94B20A8F2D0E94950AA1CF111521F0F6
:10090000063008F09CCFE3CF053008F098CF8F2D4C
:100910000E94AB0394CF0115D1F3D93349F42FEFE3
:1009200087EE93E0215080409040E1F700C0000046
:100930008D2F0E944E0383CF8C2F869586958370D2
:10094000811569F0813009F07ACF8D2F9C2F93703B
:10095000111102C080E090E00E94701570CF8D2FC1
:100960009C2F9370111102C080E090E00E944A1504
:1009700066CF612F8D2F0E94FC0261CF8C2F837078
:10098000811139C0111129C04D2F429546954770EC
:10099000440F440F2D2F2F7030E0042E02C0220F81
:1009A000331F0A94E2F780E090E0D4FF09C08FE0A3
:1009B00090E002C0880F991F4A95E2F780959095C4
:1009C000C695C695C370822B932BC23071F0C3308D
:1009D00079F0C13039F00E945D060E9414150E9422
:1009E0009E022DCF0E945406F8CF0E946606F5CFD6
:1009F0000E945106F2CF111561F1C0FFEECF4D2FCD
:100A0000429546954770440F440F2D2F2F7030E0CC
:100A1000042E02C0220F331F0A94E2F780E090E018
:100A2000D4FF09C08FE090E002C0880F991F4A955B
:100A3000E2F780959095C695C695C370822B932B4F
:100A4000C23069F0C33071F0C13031F00E94C80685
:100A5000C4CF823010F2D3CF0E94BF06BECF0E9417
:100A6000D106BBCF0E947506B8CFCF70111539F0F3
:100A70008C2F0E948D068D2F0E94A403AECF8D2F48
:100A80000E94AB038C2F0E949D06A7CFD23F41F15D
:100A900070F4D03FC9F0D13F91F0111509F446C070
:100AA000011509F440C08D2F0E94060396CFD33F55
:100AB000F1F0D43F91F780918D0282FD22C08C2FFE
:100AC0008F71111501F310C0111541F0053008F0B8
:100AD00084CF8C2F8F710E94AF067FCF0630F7CF67
:100AE0008C2F8F711111CFCF0E948D0676CF1115EB
:100AF00029F08C2F8F710E9481066FCF0E947C0697
:100B00006CCF111531F063E08C2F8F710E94360B82
:100B100064CF81E00E94550B023008F45ECF82E082
:100B20000E94550B5ACF8C2F8F71DECF011579F0B3
:100B3000D93349F4EFEFF7EE23E0E150F0402040E5
:100B4000E1F700C000008D2F0E944E0346CF8C2F8E
:100B50008F7199CF0F931F93CF93DF93EC0168812F
:100B600079818D810E9492078C010E94DA060E9491
:100B70005006B801CE010E94B203DF91CF911F91C0
:100B80000F910895CF93DF93EC018C81811599F03B
:100B9000CE010E942602811111C00E94640A8115B3
:100BA00051F08D81811539F080918D0282FF03C053
:100BB00082E00E94550BDF91CF910895CE010E94F3
:100BC000AA05CE010E94D801F6CF80E090E00E94F5
:100BD0004A1580E090E00E9470150E948E0A0E94E3
:100BE000240B0E9466130E94491308950E947B16ED
:100BF0000E94E50508950E947D0A0E94F605089569
:100C0000282F92959F70963099F060F4925F9F70B4
:100C1000923030F4203FB1F038F481E0283E38F0D3
:100C200080E008959A5FF3CF81E0243FC9F70895EB
:100C300091E0813F09F090E081E0283E08F080E0FB
:100C4000892B089581E00895FC018481811539F094
:100C5000808191810E9485070E940006089580E0AE
:100C60000895A6E0B0E0E7E3F6E00C94CE1E2696E9
:100C7000E2E00C94EA1EA7E0B0E0E1E4F6E00C94B8
:100C8000CE1E2796E2E00C94EA1E08950E944506C7
:100C900008950E9446069093BD018093BC0108957B
:100CA00008950E94490608952091BC013091BD012C
:100CB000822B932B0E94490608952091BC0130910C
:100CC000BD01822393230E94490608952091BC010F
:100CD0003091BD01822793270E94490608950E9402
:100CE000450608950E946F0608950E94720690932B
:100CF000BB018093BA01089580E090E00E947506E0
:100D0000089521E030E0A90102C0440F551F8A95E3
:100D1000E2F7CA010E947506089521E030E002C0A2
:100D2000220F331F8A95E2F78091BA019091BB019F
:100D3000822B932B0E947506089521E030E002C0BB
:100D4000220F331F8A95E2F7209530958091BA01E2
:100D50009091BB01822393230E947506089521E0A0
:100D600030E002C0220F331F8A95E2F78091BA016A
:100D70009091BB01822793270E94750608952091C8
:100D8000BA013091BB01822B932B0E947506089506
:100D90002091BA013091BB01822393230E947506F2
:100DA00008952091BA013091BB01822793270E94B8
:100DB0007506089508959B01677091E001C0990F31
:100DC0006A95EAF763E0369527956A95E1F7220F71
:100DD000331F220F331FFA01E20FF31F40E050E0F0
:100DE000682F70E08191DF019B01042E02C03695CF
:100DF00027950A94E2F7217021952827292328278F
:100E00002E934F5F5F4F4430510561F708959C0169
:100E1000982F977083E0369527958A95E1F7220FF2
:100E2000331F220F331FFB01E20FF31F40E050E09E
:100E300080E0219130E0092E02C0369527950A9472
:100E4000E2F721703327042E01C0220F0A94EAF73B
:100E5000822B4F5F5F4F4430510559F70895282F7B
:100E6000862F953068F42A3058F4622F70E02AE01B
:100E7000929F600D711D11244EE951E00E94DB0626
:100E80000895292F953068F48A3058F490E06EE97F
:100E900071E03AE0239F800D911D11240E94070705
:100EA000089580E00895A0E0B0E0E9E5F7E00C9453
:100EB000C71E8C01E090BA01F090BB018091BC018B
:100EC0009091BD01E82AF92ACFE0D0E0CC24C39468
:100ED000D12CC6010C2E02C0880F991F0A94E2F78C
:100EE0008E219F21892B49F4219798F7B12C8B2DC6
:100EF000CDB7DEB7E9E00C94E31EBC2EB8018C2F11
:100F00000E94570E019781F3F2CFCF93DF93D82F32
:100F1000C92F0E9453076D2F7C2F0E94570EDF911F
:100F2000CF9108951F93CF93DF93162FD72F9091D2
:100F30009D01911541F0862F972F0E948507DF9123
:100F4000CF911F910895811581F0862F972F0E94D0
:100F50005307C82F682F812F9D2F0E942F07612FC5
:100F60007D2F8C2F0E94570EEACF862F972F0E943D
:100F70004107C82FF4CF0F931F93CF93E091BE0189
:100F8000C7E08091BF018E1304C0CF911F910F91D4
:100F900008950E2F10E0CE9FF0011124E054FE4F73
:100FA00020813181428153816481758186810E94D3
:100FB0003B06F8013196E770E4CF2091F8013091BB
:100FC000F9014091FA015091FB016091FC0170918F
:100FD000FD018091FE010E943B0608958091FE0173
:100FE000803178F48091FD01811559F0E091BE01C6
:100FF0002091BF013091F9014091F80157E02E1383
:1010000001C008956E2F70E05E9FF0011124DF0192
:10101000A054BE4F14968C911497811561F11196CE
:101020008C911197831327C08C91841324C015963B
:101030008C91159781111FC012968D919C91A09152
:10104000FA01B091FB018A1B9B0B883C910598F437
:101050008091FE018F7080618093FE01EA53FE4F04
:1010600080818F708061808388EF91E00E94C2054B
:101070000E94BB070895FB013196E770C0CFE09155
:10108000BE019091BF0127E0E91302C080E00895FE
:10109000AE2FB0E02E9FF0011124E054FE4F3181BD
:1010A000361306C03081381303C03581341304C0B1
:1010B000FD013196E770E8CF81E008958F929F920D
:1010C000AF92BF92DF92EF92FF920F931F93CF9355
:1010D000DF93CDB7DEB72D970FB6F894DEBF0FBE06
:1010E000CDBF8C0186E0F801DE01189601900D92CB
:1010F0008A95E1F7F801F580848198EF892E91E0D7
:10110000992E9091FC0191111BC0811509F4FFC02B
:10111000F11409F440C1C8010E942406811509F4A4
:101120003AC187E0F801D40101900D928A95E1F768
:10113000C4010E94F3020E94EE070E94DD07E7C08F
:10114000E080A280B380D090FD012091FA0130911F
:10115000FB01A501421B530BD11409F4DBC0483C31
:10116000510508F0A6C0811509F4D1C09091F9018C
:1011700091808091FE01803108F06BC0991228C0E7
:101180009091F8019E1124C0F1105DC08F708061B4
:101190008093FE010E94DD0788EF91E00E94C20566
:1011A0008091FE01F8018683F12C8F2D2D960FB6CC
:1011B000F894DEBF0FBECDBFDF91CF911F910F918D
:1011C000FF90EF90DF90BF90AF909F908F90089529
:1011D000F11039C040E0692D8E2D0E943F0840E09B
:1011E000692D8E2D0E943F08F82E8111DDCF888554
:1011F00099850E948507292F22952F70903450F4ED
:101200009F70223080F0911599F0F801968190310D
:1012100078F4CBCF2A5F2F70223078F0C8010E947B
:10122000C205FD2CC2CF911519F0811509F4BDCF6F
:10123000805E883008F4B9CFF1CF803F08F4B5CF95
:10124000815F8330F7CF8091FE0181608093FE0142
:10125000ABCF991207C09091F8019E1103C0F11411
:1012600009F479C0C8010E942406811509F493C0CD
:10127000F11409F490C08091FE01803288F0209131
:10128000F8013091F9013A832983BC82AB829091B5
:10129000FC019D831E828F83CE0101960E94C205B0
:1012A00087E0F801A8EFB1E001900D928A95E1F78F
:1012B00042CF9091FE019031A0F4488559856A850E
:1012C0007B858C859D850E94310688EF91E00E9488
:1012D000C20587E0F40111928A95E9F70E94DD07C3
:1012E00063CF8115A1F02091F90181812813BACF34
:1012F0008091F8018E11B6CFF110B4CF9683C8015A
:101300000E94C20587E0F40111928A95E9F7FF2453
:10131000F3944BCF483C510508F041C08115B9F317
:10132000F114C9F19091F901818198132AC080913B
:10133000F8018E1126C08091FE0180FD19C0803118
:10134000B8F08683807F803F39F08681982F907F28
:10135000905F8F70892B8683C8010E94C20587E049
:10136000F801A8EFB1E001900D928A95E1F7E5CE82
:1013700087E0F801A8EFB1E001900D928A95E1F7BE
:10138000C6CFC8010E94240681118ACF8091FE0138
:1013900081608093FE01C8010E94C205B8CF4885D4
:1013A00059856A857B858C859D850E94310691CF04
:1013B000AEE0B0E0EEEDF9E00C94CD1E2887398761
:1013C0004A875B876C877D878E87CE0108960E944F
:1013D0005E086C858115A9F0611541F02885398575
:1013E0004A855B857D858E850E943B0617E080914E
:1013F000BE019091BF0189133AC02E96E3E00C9490
:10140000E91E87E0FE013896DE01119601900D92EB
:101410008A95E1F7611551F3A091BF018A2F90E001
:101420000196877099272091BE012817190689F027
:1014300097E09A9FD0011124A054BE4FFE0131962F
:1014400001900D929A95E1F78093BF010E94BB072E
:10145000CDCF0E94FB051092BF011092BE0187E024
:10146000E8EFF1E0DF011D928A95E9F7BFCF189F01
:10147000C001112480549E4F0E945E08811509F41A
:10148000BCCFE091BE011E9FF0011124E054FE4F3D
:1014900020813181428153816481758186810E94DE
:1014A0003B068091BE0190E001968770992780935A
:1014B000BE019DCF809127028695869586950895D9
:1014C000809127028770089590912702977081E09C
:1014D000911101C080E00895809153020895909188
:1014E0005302982B909353020895982F90958091D2
:1014F0005302892380935302089510925302089552
:1015000090915202982B909352020895982F9095A3
:1015100080915202892380935202089510925202C0
:10152000089508950E94910A089590912802292F04
:101530002823211531F080958923809328020E9469
:10154000920A089508950E94A20A0895909129028E
:10155000292F2823281729F0982B909329020E94DD
:10156000A30A089590912902292F2823211531F0EB
:1015700080958923809329020E94A30A089580916F
:101580002902811529F01092290280E00E94A30A05
:101590000895CF93C091530280915202C82B80913D
:1015A0002902811531F0C82B0E94961581110E94E5
:1015B000BF0A8C2FCF910895CF93DF93C091020182
:1015C000D09103010E94C90A8883C0910201D09181
:1015D000030148E050E06FE172E0CE010E94091F74
:1015E000892B59F088E0FE01AFE1B2E001900D9245
:1015F0008A95E1F7CE010E942115DF91CF910895E0
:10160000CF93DF93C0910001D09101010E94C90ADC
:101610008983C0910001D091010140E250E06FEF59
:1016200071E0CE010E94091F892B59F080E2FE0172
:10163000AFEFB1E001900D928A95E1F7CE010E94E3
:101640002C15DF91CF9108950E940717813039F44E
:1016500080918C0287FF03C00E94000B08950E94B6
:10166000DC0A089508950E94320B0895962F209168
:101670008D0222FF11C0682F660F660F660F692B5F
:10168000609327020E948D06809127028695869599
:1016900086950E94330B08950E948D06089510923E
:1016A000270280E00E94330B0895909127028095D5
:1016B000892380932702282F277021110DC08917B5
:1016C00059F090918D0292FF07C086958695869578
:1016D0000E949D060E944F0B089590918D0292FBEF
:1016E000222720F9281769F080FB92F990938D0248
:1016F00080918C0290918D020E94BB0B82E00E942F
:10170000550B089580918D02002482FF0394802D53
:101710000E946D0B089581E00E946D0B089580E09A
:101720000E946D0B08956FEF7FEF80E090E00E94C4
:101730005B1F089580E090E00E94271F9C0181E0DC
:10174000253E3E4F09F080E0089582E090E00E943F
:101750001F1F089583E090E00E941F1F90E00895EE
:10176000682F83E090E00E943D1F089584E090E0A0
:101770000E94271F0895BC0184E090E00E945B1F37
:101780000895AB01BC018FE090E00E944F1F0895C7
:10179000AB01BC0183E190E00E944F1F089560E01F
:1017A00070E0CB010E94C80B089560E070E0CB01AF
:1017B0000E94C10B0E94CF0B0895A8E0B0E0E3EEB9
:1017C000FBE00C94CE1E65EE7EEF80E090E00E9480
:1017D0005B1F60E082E090E00E943D1F81E090E0AE
:1017E0009093BD018093BC010E94B00B60E074E156
:1017F00084E090E00E945B1F60E086E090E00E9441
:101800003D1F60E087E090E00E943D1F40E050E017
:10181000BA0188E090E00E944F1F60E083E290E010
:101820000E943D1F60E08CE090E00E943D1F60E060
:101830008DE090E00E943D1F19821A821B821C825B
:101840001D821E821F82188648E050E067E170E02A
:10185000CE0101960E942D1F40E050E0BA018FE1B9
:1018600090E00E944F1F0E94D50B2896E2E00C9456
:10187000EA1E0E94DD0B0895682F8EE090E00E9422
:101880003D1F0895A6E0B0E0E8E4FCE00C94CC1E17
:101890000E94B0178C0180915402909155028017DC
:1018A000910779F019821A820E94B017BC01498110
:1018B0005A8180E090E00E94C30210935502009389
:1018C00054022696E4E00C94E81E0E94BC17609334
:1018D000640270936502809366029093670260933E
:1018E0006002709361028093620290936302089594
:1018F000089508950E94780C089508950E947D0C23
:1019000008958CE49FE00E94D1100E94790C0E94FF
:101910007A0C089581E0089581E008950E948A0C70
:101920000895089508950E94910C0E94920C0895C4
:101930000E949A0B811102C00E94390C0E94A50BD3
:10194000809368020E94B60B90938D0280938C0264
:101950000E94F4100E94AA0B0E9451068091BA01C5
:101960009091BB010E94720608950E94A7170E94E1
:1019700024100E94980C0E949D020E947E0C0895E3
:10198000A6E0B0E0E6ECFCE00C94C21E0E948C0CD9
:1019900081110AC00E94420C0E9487130E94AA0271
:1019A0002696EEE00C94DE1E0E943A1026E5822E6A
:1019B00022E0922E540110E0F501619071905F01D8
:1019C000812F0E94680F6C011F5F153009F44AC017
:1019D0006816790689F38091680281FD0E94710F73
:1019E0000E948E0C782E10E066246394812F0E9452
:1019F000680F7C01F401A190B1904F018A159B05FD
:101A000059F1A826BF2400E0CC24C394D12CC501F1
:101A10008C219D21892BC1F07114B1F009831A83A7
:101A20000E94B0179C838B836D8221E0C7018C21BB
:101A30009D21892B09F420E049815A816B817C81A9
:101A40008D81922F0E94C3020F5FCC0CDD1C0A30E7
:101A5000F1F6F401F292E2921F5F153039F60E941E
:101A6000650C9ACF6816790609F0B5CF93CF1F930E
:101A7000CF93DF930E945C0EEC01811522E5920763
:101A800008F05DC0811540E5940708F0DBC0803E9A
:101A9000910528F58D3C910508F0ACC0883A910578
:101AA00078F4853A910508F0A2C08130910509F4D7
:101AB00041C00497813A9105E8F1C0E0D0E03AC016
:101AC000885A91094B97C8F7C85AD0E0CC0FDD1F50
:101AD000C05BDE4F0990D881C02DD4642BC0811526
:101AE00050E49507F8F4C11580E2D80708F0C0C0AB
:101AF000C83ED105F8F0CE019A9581159F41E8F6D0
:101B00008D2F0E94FD0E182FCE0199270E945C0E8A
:101B1000212F30E0322F2227E901CC27DF71C82B9B
:101B2000D92B08C099270E945C0ECC27DF70C82BE8
:101B3000D92BD06ACE01DF91CF911F9108958038C3
:101B400042E59407C8F5803652E5950708F05BC07A
:101B5000C03482E5D807D0F4C03292E5D90708F046
:101B60004BC08C2F8695869520E2829FC001112460
:101B7000C37021E030E0A90102C0440F551FCA958F
:101B8000E2F7EA01C82BD92BDD68D4CF8C2F8695DC
:101B90008695877050E2859FC0011124C37021E0B3
:101BA00030E0A90102C0440F551FCA95E2F7EA01CF
:101BB000C82BD92BDC68BECF803C52E5950758F482
:101BC0008F71C03AD245A0F590E0982F8827EC019C
:101BD000C46FD06AAFCF805C9245809708F06DCF1C
:101BE000DC2FCC27CC27DF71C06FD06AA3CFA4979E
:101BF000D064A0CFD0659ECFCF71D0E0DC2FCC27B2
:101C0000C16FD06A97CF86958695877020E2829FB4
:101C1000C0011124C37021E030E0A90102C0440FCB
:101C2000551FCA95E2F7EA01C82BD92BDA6882CF93
:101C30000E94FD0EC82FD0E0DC2FCC27CC27DF710F
:101C4000D06278CF8F710E94FD0E53E0CC0FDD1F64
:101C50005A95E1F7CC27DF70282F30E084FF04C0CD
:101C600050E1859F90011124C22BD32BD06962CF04
:101C70008D2F8F710E94FD0E182FCE0199270E9483
:101C80005C0E212F30E0322F222722273F71282B94
:101C9000392BE901D5CF462F672F753028F44A300C
:101CA00018F40E947E01089580E090E008950E945B
:101CB0004B0E0E94370D08959C01803E910509F45A
:101CC00048C0D8F48133910509F47DC048F48932C5
:101CD000910509F46DC08A9709F47CC0C901089583
:101CE0008933910551F18238910539F1C597B1F7E2
:101CF00080918C0285FFF2CF29C0843E910509F4C2
:101D000047C048F4823E910599F1833E9105A9F1BF
:101D100021EE30E0E3CF863E910509F444C0873ED2
:101D20009105E1F680918C0283FD61C090918D0256
:101D300091FF2BC024EE30E0D1CF80918C028370D4
:101D4000811152C080918D0283FFC8CF29E230E01B
:101D5000C5CF80918C0280FD33C090918D0290FFA1
:101D6000BDCF23EE30E084FFB9CF20E030E0B6CF26
:101D700080918C0282FDF5CFB1CF80918C0282FDE3
:101D800030C090918D0290FD2FC084FFA7CFEDCF82
:101D900080918D0281FFA2CF80918C0227EE30E0EE
:101DA00084FDE3CF9BCF80918C0283FDF7CF96CF4C
:101DB00080918C0285FD1EC080918D0283FF8ECFA5
:101DC00029E330E08BCF80918C0286FF87CF2AE217
:101DD00030E084CF80918C0286FF80CF21E330E019
:101DE0007DCF22EE30E07ACF20EE30E077CF26EEC6
:101DF00030E074CF25E330E071CF90918C0292FFF8
:101E000010C041E0282F2471243009F040E031E077
:101E1000282F2871283009F030E0431711F02CE00A
:101E2000822793FF10C041E0282F2471243109F04C
:101E300040E031E0282F2871283109F030E04317C5
:101E400011F02CE0822730918D0230FF10C051E05C
:101E5000282F2171213009F050E041E0282F28710E
:101E6000283009F040E0541711F029E0822731FFB3
:101E700010C041E0282F2171213109F040E031E00C
:101E8000282F2871283109F030E0431711F029E09C
:101E9000822794FD877E089580E00895CF939C016A
:101EA000FB01805E9245C1E0809738F4C581C11185
:101EB00004C0822F8F710E94F2018C2FCF91089560
:101EC00008950E94600F089508950E94640F089578
:101ED000E82FF0E0EE0FFF1FE856FD4F8081918163
:101EE0000895089580EA8A95F1F7089500C008954D
:101EF0000E94720F0895F894E82FE295EF70F0E0D9
:101F000041A18F7021E030E0B90102C0660F771F58
:101F10008A95E2F7CB01962F9095942391A392A1F5
:101F2000892B82A378940895CF93DF93C0E9D1E001
:101F300089918F3F11F00E947B0F81E0C539D8074E
:101F4000B9F7C6E8D1E089918F3F11F00E947B0F6D
:101F500081E0C039D807B9F7DF91CF9108958F920A
:101F60009F92BF92CF92DF92EF92FF920F931F93B7
:101F7000CF93DF938C01B62EE62EF12CC70180574C
:101F80009E4F6C01FC0180818F3F09F451C0F89491
:101F9000E82FE295EF70F0E091A18F7021E030E042
:101FA00001C0220F8A95EAF7892F822B81A382A193
:101FB0002095282322A378940E94760FE6E8F1E08A
:101FC00021E030E0812C912C41914F3F81F0A42FF2
:101FD000A295AF70A05EB0E08C9190E04F7002C00F
:101FE000959587954A95E2F7E90180FF04C080E066
:101FF000C82F90E0D92F8C2A9D2A220F331F81E011
:10200000E039F80709F7F60180818F3F11F00E944F
:102010007B0F61E08114910409F460E08B2D0E9434
:10202000780FEE0CFF1C0E0D1F1DF80191828082AF
:10203000DF91CF911F910F91FF90EF90DF90CF90A4
:10204000BF909F908F9008950E94940F8AE0E8E9D6
:10205000F2E0DF01982F1D929A95E9F7EEE8F2E0A1
:10206000DF011D928A95E9F785E00E9477100E94B2
:10207000610F0895AAE0B0E0E0E4F0E10C94CB1E1B
:10208000FE0131968AE0DF011D928A95E9F710E0A2
:10209000FE2E0F2F612F8F2D902F0E94AF0F1F5FED
:1020A0001530C1F74AE050E06F2D702F8EE892E0B6
:1020B0000E94091F21E0892B81F420E045E068E9B6
:1020C00072E08EE892E00E947810182F0E94650F4F
:1020D000812F2A96E5E00C94E71E8AE0EF2DF02F81
:1020E000AEE8B2E001900D928A95E1F7E7CF08954E
:1020F000A0E0B0E0EEE7F0E10C94C81ED82EE92E87
:10210000F62ED72F042FC22F211579F081E080936E
:102110006B020E94B01790936A028093690280E07C
:10212000CDB7DEB7E8E00C94E41EC0906B02C1149A
:10213000B1F38091690290916A020E94C8170597D5
:1021400070F310E0000F111FA8016D2D7E2D8F2D53
:102150009D2F0E94091F892B41F0A8016D2D7E2D16
:102160008F2D9D2F0E94161FCC2D10926B028C2F4D
:10217000D7CF0E94C00C08950E9449170E94611990
:102180000E94810C0E947B190E94B50C0E94881944
:102190000E948D190E94B9100E94A7190E94930CE9
:1021A000F7CF909397018093960108950E94930B27
:1021B000089580E00E94680F817008950E943A108F
:1021C0002FEF86E791E0215080409040E1F700C07A
:1021D00000000E943A100E94D910811521F00E943F
:1021E000D6100E94FB1708950E94DE100895CF9329
:1021F000DF93EB0186319C4719F50E946C0A9D81A3
:102200009115A1F08A7A91E0811101C090E090933C
:102210006C02811549F085E30E9447160E94240B49
:1022200080E0DF91CF91089589E2F6CF80916C0232
:10223000811521F085E30E946116F0CF89E2FBCF82
:1022400081E0EFCFCF93DF93EC01FB018581811516
:1022500009F4CFC09E0130572332310508F0AFC0DA
:102260000E94B60B90938D0280938C02FE01E15088
:10227000F047E232F10520F4E158F04E0C94B81E1C
:1022800080918C02816080938C0290C080918D023D
:10229000886080938D028AC080918C028260F3CF27
:1022A00080918C028460EFCF80918C028860EBCFAC
:1022B00080918D028160EDCF80918D028260E9CFA7
:1022C00080918C028061DFCF80918C028062DBCFB5
:1022D00080918C028064D7CF0E94FB0580918C0294
:1022E0008068D1CF80918C028C60CDCF80918D029F
:1022F0008360CFCF80918C028E7FC5CF80918D027D
:10230000877FC7CF80918C028D7FBDCF80918C025B
:102310008B7FB9CF80918C02877FB5CF80918D0262
:102320008E7FB7CF80918D028D7FB3CF80918C024D
:102330008F7EA9CF80918C028F7DA5CF80918C025A
:102340008F7BA1CF0E94FB0580918C028F779BCF62
:1023500080918C02837F97CF80918D028C7F99CF63
:1023600080918C02992782FF939590FB82F990FBD4
:1023700083F989CF80918D02982F909590FB80F9F9
:1023800090FB81F986CF90918C02892F8F7B96FFED
:10239000806479CF0E94FB0590918C02892F97FB76
:1023A00087F9805870CF81E00E943C0C80918C02AC
:1023B00090918D020E94BB0B0E94FB0580E0DF9193
:1023C000CF91089580E0F0CF90918C02892F8F7E7D
:1023D00094FF806158CF90918C02892F8E7F90FF5F
:1023E000816051CF90918D02892F877F93FF886004
:1023F00050CF81E0E4CF282F35EB2303C001112417
:1024000097FF04C080589109892F089580589F4FE5
:10241000FBCF8091730280FF0DC06091090170E0D5
:10242000660F771F60387105B0F561157105A9F168
:10243000862F089581FF07C06091090184E0689F9D
:10244000B0011124EFCF82FF04C06091090188E040
:10245000F6CF909172029115D9F0209108018091E8
:102460000901682F70E0921730F043E0660F771F84
:102470004A95E1F7D7CF899FC001112433E0880F37
:10248000991F3A95E1F7622F70E00E94A41ECACF0F
:1024900068E070E0CDCF8FE7089581E008958091E6
:1024A000730280FF0CC06091050170E0759567951F
:1024B000759567956115710549F1862F089581FF1E
:1024C00006C06091050170E075956795F3CF609146
:1024D000050182FD0BC0909171029115A1F06091F0
:1024E000040180910501961738F0682F70E060387C
:1024F000710500F38FE70895899FC001112470E0F2
:102500000E94A41EF4CF61E070E0D7CF81E008956F
:10251000E3E3E80FE331E0F5F0E0EF55F04E0C9423
:10252000B81E0E94091281958093770208950E9437
:102530000912FACF0E9409128195809376020895BC
:102540000E940912FACF0E944F12809378020895D8
:102550000E944F128195F9CF0E944F12819580936E
:10256000790208950E944F12FACF815D990B21E004
:1025700030E001C0220F8A95EAF780917502822B24
:102580008093750208958091730281608093730235
:102590000895809173028260F9CF80917302846004
:1025A000F5CF409176028D3C59F48091770287FFF8
:1025B0000DC010927702411559F41092720208C0B2
:1025C0008E3C81F48091770218169CF3411581F0BE
:1025D0008091780290917902892B811159C01092D3
:1025E000710208958F3C41F447FFF0CF10927602BC
:1025F000809177028115E0CF803D19F41416B4F371
:10260000E5CF90917802893D29F41916FCF61092D5
:102610007802DCCF8A3D19F497FFD8CFF8CF90919C
:1026200079028B3D29F497FFD1CF10927902CECF5A
:102630008C3D19F41916CCF3C9CF9FE2980F98304E
:1026400090F4815D990B21E030E0B90102C0660F82
:10265000771F8A95E2F7CB018095909175028923C7
:1026600080937502B3CF8D3D31F4809173028E7FDC
:1026700080937302ABCF8E3D21F4809173028D7FE6
:10268000F7CF8F3D09F0A2CF809173028B7FF0CFFF
:1026900008950E94B0172091760230917702232B83
:1026A000211521F080936F0290937002209178029F
:1026B00030917902232B211521F080936D029093A4
:1026C0006E0284E792E00E943B15089586E0E4E7FD
:1026D000F2E0DF011D928A95E9F7109272021092E2
:1026E0007102109273020895FC01828181110DC064
:1026F000838181110AC08481811107C081E09581A5
:10270000911101C080E08170089581E0FCCFA6E0C6
:10271000B0E0EDE8F3E10C94C81E86E0E4E7F2E0F7
:102720009E012F5F3F4FD90101900D928A95E1F7ED
:10273000109276021092770210927802109279022B
:102740008B819C81892B7901811589F080916F02A1
:10275000909170020E94C8176C01809172028115DD
:10276000B9F190910A019C151D0408F43EC08D81B9
:102770009E81892B811591F080916D0290916E025E
:102780000E94C8178C0180917102811509F45FC005
:10279000909106019017110608F467C0B70184E70D
:1027A00092E00E949516811105C084E792E00E9494
:1027B000741381110E94491386E0F701A4E7B2E087
:1027C00001900D928A95E1F72696E8E00C94E41EBC
:1027D00020910B019AE0299F900111242C153D05B1
:1027E00030F68F5F8093720202C08F3FD1F7DB809B
:1027F000D11459F00E94091291E01D140CF09FEFC2
:10280000899F802D112480937602DC80D11459F0A9
:102810000E94091291E01D140CF09FEF899F802DFA
:1028200011248093770280917602811509F49FCF5D
:10283000D0907702D11409F49ACF0E94FB118093B3
:1028400076028D2D0E94FB118093770290CF20910C
:1028500007019AE0299F900111242017310708F001
:102860009DCF8F5F8093710202C08F3FD1F71D8192
:10287000111559F00E944F1291E011160CF09FEFC4
:10288000899F802D1124809378021E81111559F0A3
:102890000E944F1291E011160CF09FEF899F802D3E
:1028A00011248093790280917802811509F476CF02
:1028B00010917902111509F471CF0E94FB118093D8
:1028C0007802812F0E94FB118093790267CF0F93CA
:1028D0001F93CF93DF93C42FD22FFC0185818115E5
:1028E000C9F040937C020E94B01790937B028093C2
:1028F0007A0280E28C0F883040F4C77081E001C01A
:10290000880FCA95EAF70E94A403DF91CF911F9127
:102910000F91089510917C02141333C080917A02B4
:1029200090917B020E94C817883C910550F5C0E247
:10293000CD0F1D17C1F080E2810F883040F4177071
:1029400081E001C0880F1A95EAF70E94AB03C830F6
:1029500050F491E08D2F877001C0990F8A95EAF7A6
:10296000892F0E94A403802F0E949B03C83068F621
:10297000D77081E001C0880FDA95EAF70E94AB03B7
:10298000C4CF80E28C0F883008F0BFCFC77081E0E1
:1029900001C0880FCA95EAF7F1CF0F93DB01FC0164
:1029A000E851FC47E730F10598F5EC54F04E0C94F3
:1029B000B81E06E221EE41EE6AE17CE7CD010E94FD
:1029C000671480E00F91089507E225EE45EE6BE174
:1029D0007CE7F4CF06E221EE40EE68E17CE7EECF43
:1029E00007E225EE44EE69E17CE7E8CF06E221EE5E
:1029F00042EE6CE17CE7E2CF07E225EE46EE6DE1C8
:102A00007CE7DCCF08E221E045EE6EE17CE7D6CF43
:102A100015968C91811110927C0281E0D3CF909316
:102A20008202809381020895E0918102F0918202F6
:102A3000309729F00190F081E02D0995089580E00C
:102A40000895E0918102F0918202309721F0028096
:102A5000F381E02D09950895DC01E0918102F09168
:102A60008202309739F086E08C930480F581E02D66
:102A7000CD0109950895DC01E0918102F091820277
:102A8000309739F082E08C930680F781E02DCD01FC
:102A900009950895A3E0B0E0E0E5F5E10C94CE1EC1
:102AA0009C0180917F029091800282179307A1F090
:102AB0003093800220937F02E0918102F0918202A4
:102AC000309751F083E089833B832A830084F1852A
:102AD000E02DCE01019609952396E2E00C94EA1EC2
:102AE000A3E0B0E0E6E7F5E10C94CE1E9C018091F6
:102AF0007D0290917E0282179307A1F030937E02AF
:102B000020937D02E0918102F0918202309751F092
:102B100084E089833B832A830084F185E02DCE0104
:102B2000019609952396E2E00C94EA1ECF93DF9379
:102B3000C0910201D091030122960E9407178130B3
:102B400081F480918C0287FF0CC0C0910001D0916C
:102B5000010122969EE180E0915028F4DF91CF910F
:102B6000089596E0F8CF29912115B1F38F5FF4CF46
:102B7000CF93C82F811102C080E031C00E94071797
:102B8000813021F480918C0287FD0EC0809102017A
:102B900090910301FC013296089621912C1709F1BE
:102BA000E817F907D1F7E8CF8C2F8695869586959B
:102BB000C03F10F7E0910001F0910101E80FF11D15
:102BC000228130E0C77081E090E002C0880F991F39
:102BD000CA95E2F72823392381E0232B69F2CF91AC
:102BE000089581E0FCCF9C01FC0132968FEF90E0CC
:102BF0004191461751F08F3F19F4411101C0892FBF
:102C00009F5F9630A9F78F3F09F40895280F311D73
:102C100087FD3A95F901628308959C01FC01329683
:102C2000285F3F4F8191861302C0DF011E92E21799
:102C3000F307C1F70895FC01862F86958695869542
:102C4000603F60F4E80FF11D677021E030E001C0E3
:102C5000220F6A95EAF78281822B82830895FC0114
:102C6000862F869586958695603F80F4E80FF11D46
:102C7000677081E090E09C0102C0220F331F6A95CB
:102C8000E2F7B90160958281682362830895CF934A
:102C9000C82F0E9407176C2F813061F480918C023D
:102CA00087FF08C080910001909101010E941B16CE
:102CB000CF91089580910201909103010E94F31534
:102CC000F7CFCF93C82F0E9407176C2F813061F484
:102CD00080918C0287FF08C08091000190910101D2
:102CE0000E942F16CF9108958091020190910301C7
:102CF0000E940D16F7CF0E940717813079F480915A
:102D00008C0287FF0BC0E0910001F0910101329627
:102D10008EE1DF011D928A95E9F70895E0910201A5
:102D2000F0910301329686E0F4CFDC01FB011196AD
:102D30009C9111978181981322C012968C911297C1
:102D4000811519F0928189131AC013968C911397EB
:102D5000811519F09381891312C015968C911597DE
:102D6000811519F0958189130AC014969C919115CB
:102D700021F081E02481291303C080E001C081E0BB
:102D80008170089508950E94C21608958F5F809300
:102D90000F0160910C0170910D0180910E019091D5
:102DA0000F010E94C316089583E080930F01609184
:102DB0000C0170910D0180910E0190910F010E9404
:102DC000C31608950E94C616089581E080930F01EE
:102DD00060910C0170910D0180910E0190910F0195
:102DE0000E94C31608950E94E516089591E081118E
:102DF00001C090E090930E0160910C0170910D0163
:102E000080910E0190910F010E94C3160895809148
:102E10000E01089580930D0160910C0170910D01D8
:102E200080910E0190910F010E94C3160895809128
:102E30000D01089580930C0160910C0170910D01BA
:102E400080910E0190910F010E94C3160895809108
:102E50000C010895089508950E942B170895089570
:102E600008950E942A170895CF930E942F170E9459
:102E70003A100E943017C0E08C2F0E94680F892BF7
:102E800031F4CF5FC530C1F780E0CF91089581E084
:102E9000FCCF85B7806885BF85B7806885BF0895FA
:102EA0001F921FB61F9211248F939F93AF93BF93CE
:102EB00080918302811113C08091A2029091A3029C
:102EC000A091A402B091A5024196A11DB11D8093CD
:102ED000A2029093A302A093A402B093A502BF9173
:102EE000AF919F918F911F901FBE1F901895809159
:102EF000AA02843031F10E9481021092830288E19B
:102F000090E020E40FB6F894A895809360000FBE7F
:102F10002093600083B7817F846083BF83B7816023
:102F200083BF7894889583B78E7F83BF0FB6F8945C
:102F3000A895809160008861809360001092600085
:102F40000FBE08950E94FB050E948602089582E04C
:102F500084BD93E095BD9AEF97BD80936E00089570
:102F60002FB7F8948091A2029091A302A091A4029D
:102F7000B091A5022FBF08952FB7F8946091A202D7
:102F80007091A3028091A4029091A5022FBF089591
:102F90009C014FB7F8948091A2029091A302A09156
:102FA000A402B091A5024FBF821B930B08957894A1
:102FB0001F921FB61F9211248F939F93AF93BF93BD
:102FC0008091A2029091A302A091A402B091A502C7
:102FD0000196A11DB11D8093A2029093A302A0931C
:102FE000A402B093A502BF91AF919F918F911F90C2
:102FF0001FBE1F90189587E797E79093010880936D
:10300000000888E19AE00FB6F894A89580936000D4
:103010000FBE90936000FFCF88E19AE00FB6F8945E
:10302000A895809360000FBE90936000FFCF282F7B
:10303000CB01BA013091AA023430D9F42F70209319
:10304000E9002FEF3091E80035FD06C035ED3A95E7
:10305000F1F700002A95B1F72091E80025FF09C09B
:1030600040E050E00E941E1A8091E8008E77809325
:10307000E8000895BC0143E050E082E00E94171888
:103080000895BC0146E050E082E00E9417180895C0
:10309000BC0140E250E082E00E9417180895CF93EF
:1030A000DF93D82FC92F0E94071748E050E06D2FFB
:1030B0007C2F81E00E94171888E0ED2FFC2FA4E8F8
:1030C000B2E001900D928A95E1F7DF91CF910895DA
:1030D0008091A902811109C00E94A71B0E94041CB3
:1030E0008091E20084608093E20008951092A9022A
:1030F00008950E94E51681E00E94F61608956091F9
:10310000A60281E0611101C080E00E94D4160895FA
:103110009091AA0281E0943009F080E06091A602CB
:103120000E94E216089542E061EC81E00E94231BB8
:1031300042E261EC82E00E94231B9091AA0281E0AE
:10314000943009F080E06091A6020E94C6160895AE
:103150008091AC02893089F148F4823009F4A0C032
:10316000833009F45AC0813041F008958A3009F45F
:1031700087C08B3009F46CC008958091AB02813A0E
:1031800009F04AC08091E800877F8093E800809131
:10319000AF029091B002892B61F060E080E090E096
:1031A00070E00E946E1A8091E8008B778093E800AF
:1031B000089568E084E892E0F3CF8091AB02813219
:1031C00059F58091AF029091B002029728F5809155
:1031D000E800877F8093E8008091E80082FF18C0B4
:1031E0009091F3008091F200029731F48091F10008
:1031F000813011F0863021F48091F1000E940A178D
:103200008091E8008B778093E8000E94571B089517
:103210008091AA028111E0CF08958091AB02813A9A
:10322000D9F78091AF029091B002892BA9F78091D4
:10323000E800877F8093E8008091E80080FFFCCF62
:103240000E9407178093F1008091E8008E77DBCF12
:103250008091AB02813201F78091AF029091B00270
:10326000892BD1F68091E800877F8093E8000E9447
:10327000571B8091AD020E94F6160E94FB0508952F
:103280008091AB02813241F68091E800877F809384
:10329000E8000E94571B8091AE020E941A17089501
:1032A0008091AB02813A09F0B7CF8091E800877F27
:1032B0008093E8008091E80080FFFCCF0E942717F0
:1032C000C1CF84B7877F84BF0FB6F894A89580914B
:1032D0006000886180936000109260000FBE80E8FB
:1032E00090E00FB6F89480936100909361000FBE58
:1032F0000E94F31608950E94A71B0E94041CE2EE90
:10330000F0E080818460808378940E948A1E089512
:1033100080E191E00E940F1508958091AA02853006
:1033200031F48091AA02853019F00E94A217089505
:103330000E9477170E943417811599F38091A80293
:10334000811579F30E94081A0E94FB05EACF0895BF
:103350009A014091B1025091B2020E94B0190895B1
:10336000FC01D9018F2F992783309105C1F068F4B2
:103370008130910509F447C0029761F48BE390E036
:1033800028E431E02D933C93089581329105E1F0DA
:10339000829749F180E090E020E030E0F3CFCF0168
:1033A0009927E13059F08230910559F0E4E4F1E0D9
:1033B000892B81F7849190E09F01E4CFE8E2F1E06E
:1033C000F9CFE0E1F1E0F6CF89E090E02AE531E0E5
:1033D00061157105B9F289E090E023E731E06130D1
:1033E000710581F2D7CF84E490E02BE432E06115DF
:1033F000710541F286EB90E025E931E0613071051D
:1034000009F4C0CFC7CF82E190E023E831E0BACF22
:1034100080E189BD82E189BD09B400FEFDCF8091C4
:10342000D8008F7D8093D8008091E00082608093E7
:10343000E0008091E00081FDFCCF0895AF92BF9243
:10344000CF92DF92EF92FF920F931F93CF936C0175
:103450008B017A010E94761BC82F811123C0E114D1
:10346000F10439F0F70180819181081B190BC80E16
:10347000D91EA12CB12C01151105A1F08091E800F5
:1034800085FD21C08091E8008E778093E800E114EB
:10349000F10499F0F701808191818A0D9B1D918340
:1034A0008083C5E08C2FCF911F910F91FF90EF90FB
:1034B000DF90CF90BF90AF9008950E94761B81154A
:1034C000E9F2C82FEFCFF60181916F018093F100EF
:1034D00001501109FFEFAF1ABF0ACDCFFC019B01CC
:1034E0008091B1029091B2028617970718F0672B6E
:1034F00061F0C90140E0009771F441110CC0809166
:10350000E80082FF35C080E008958091E8008E7762
:103510008093E800EECF2091AA022115A9F1253071
:10352000A9F12091E80023FD2DC02091E80022FDA3
:10353000E6CF2091E80020FFDECF3091F30020910C
:10354000F200009719F02830310558F041E028309A
:10355000310509F040E02091E8002E772093E80043
:10356000CACF41914093F10001972F5F3F4FE9CFC0
:103570008091AA02811541F0853041F08091E800E8
:1035800083FFBDCF81E0089582E0089583E0089530
:10359000FC019B018091B1029091B20286179707BE
:1035A00018F0672B61F0C90140E0009771F44111F8
:1035B0000CC08091E80082FF36C080E008958091C1
:1035C000E8008E778093E800EECF2091AA022115C3
:1035D000B1F12530B1F12091E80023FD2EC02091FA
:1035E000E80022FDE6CF2091E80020FFDECF3091F9
:1035F000F3002091F200009719F02830310558F0BF
:1036000041E02830310509F040E02091E8002E77B4
:103610002093E800CACF44914093F100319601977E
:103620002F5F3F4FE8CF8091AA02811541F085308E
:1036300041F08091E80083FFBCCF81E0089582E0F3
:10364000089583E00895982F973028F08F70809325
:10365000E90081E008959093E900242F762F50E04F
:10366000981731F07091EC002091ED005091F0002E
:1036700021FD02C09F5FE8CF3091EB003E7F309389
:10368000EB003091ED003D7F3093ED003091EB0089
:1036900031603093EB007093EC002093ED00509379
:1036A000F0002091EE0027FDE5CF80E008958091A5
:1036B000AB0287FF13C08091E80082FF06C08091B3
:1036C000E8008B778093E80008958091AA02811129
:1036D000F2CF08958091AA028115D9F38091E80074
:1036E00080FFF8CF8091E8008E77ECCF2091E40046
:1036F0003091E50095E6A9012091EC00822F8170C0
:1037000020FF06C08091E80080FF06C080E0089599
:103710002091E80022FD1AC08091AA02811589F04B
:10372000853089F08091EB0085FD0FC02091E40089
:103730003091E50042175307F9F29A95E1F684E0DB
:10374000089582E0089583E0089581E008950E943D
:10375000161C0E941E1CE0EEF0E0808181608083D8
:10376000E8EDF0E080818F77808319BCA7EDB0E0B1
:103770008C918E7F8C9380818F7E80831092A902A2
:1037800008950F931F93CF93DF930E94161C0E94FE
:103790001E1CC8EDD0E088818F778883888180687F
:1037A000888388818F7D888319BC1092AA02109229
:1037B000A6021092A8021092A70200EE10E0F801F3
:1037C00080818B7F808388818160888342E060E094
:1037D00080E00E94231BE1EEF0E080818E7F8083F9
:1037E000E2EEF0E080818160808380818860808368
:1037F000F80180818E7F8083888180618883DF915A
:10380000CF911F910F910895E8EDF0E080818F7EB8
:103810008083E7EDF0E080818160808384E082BF77
:1038200081E08093A9020E94C11B0895E8EDF0E0B9
:1038300080818E7F80831092E20008951092DA00DA
:103840001092E10008951F920F920FB60F9211246B
:103850002F933F934F935F936F937F938F939F9398
:10386000AF93BF93EF93FF938091E10082FF0BC072
:103870008091E20082FF07C08091E1008B7F8093FE
:10388000E1000E94891E8091DA0080FF19C08091BA
:10389000D80080FF15C08091DA008E7F8093DA0017
:1038A0008091D90080FF94C080E189BD82E189BD0B
:1038B00009B400FEFDCF81E08093AA020E9468183F
:1038C0008091E10080FF19C08091E20080FF15C067
:1038D0008091E2008E7F8093E2008091E20080611F
:1038E0008093E2008091D80080628093D80019BC58
:1038F00085E08093AA020E947F188091E10084FFF6
:1039000029C08091E20084FF25C080E189BD82E169
:1039100089BD09B400FEFDCF8091D8008F7D8093D2
:10392000D8008091E1008F7E8093E1008091E200D9
:103930008F7E8093E2008091E20081608093E200BC
:103940008091A602811509F449C084E08093AA02FF
:103950000E9488188091E10083FF29C08091E200D5
:1039600083FF25C08091E100877F8093E10082E0A2
:103970008093AA021092A6028091E1008E7F80932C
:10398000E1008091E2008E7F8093E2008091E2006E
:1039900080618093E20042E060E080E00E94231BAF
:1039A0008091F00088608093F0000E947918FF9168
:1039B000EF91BF91AF919F918F917F916F915F91A7
:1039C0004F913F912F910F900FBE0F901F90189520
:1039D00019BC1092AA020E94761872CF8091E3005F
:1039E00087FF02C083E0B2CF81E0B0CF1F920F9279
:1039F0000FB60F921124EF92FF920F931F932F9304
:103A00003F934F935F936F937F938F939F93AF9366
:103A1000BF93CF93EF93FF9309EE10E0F8018081FD
:103A2000C091EC008F70C795CC27C795C82B10822A
:103A300080EFE82EF12CF7018081877F80837894D6
:103A40000E94411DF8011082F70180818860808307
:103A5000CF70F801C083FF91EF91CF91BF91AF91EB
:103A60009F918F917F916F915F914F913F912F9196
:103A70001F910F91FF90EF900F900FBE0F901F902E
:103A80001895AAE2B0E0E7E4FDE10C94CC1E8BEAC5
:103A900092E0FC0101962091F100208322E0833B1B
:103AA0009207B9F70E94A8188091E80083FF38C0F8
:103AB0008091AB029091AC029A3090F5E92FF0E042
:103AC000E554F04E0C94B81E803889F0823841F5E8
:103AD0008091AF028F70873018F58093E900809154
:103AE000EB0085FB882780F91092E90006C08091E1
:103AF000A802880F9091A702892B9091E800977FE8
:103B00009093E8008093F1001092F1008091E8001A
:103B10008E7723C0811116C08091AD02813011F1E2
:103B20008091E80083FF0AC08091E800877F80933E
:103B3000E8008091EB0080628093EB00AA96E4E0BD
:103B40000C94E81E823061F78091AD02811589F0F6
:103B50001092E9008091E800877F8093E8000E943E
:103B6000571BDECF81E0933009F080E08093A802FC
:103B7000EFCF8091AF028F702FEF280F263080F6A5
:103B80008093E9002091EB0020FFE2CF933031F4E5
:103B90008091EB0080628093EB00DACF9091EB0094
:103BA00090619093EB0021E030E0A90102C0440F46
:103BB000551F8A95E2F74093EA001092EA0080913F
:103BC000EB008860E8CF8111ABCF1091AD021F7779
:103BD0008091E3008078812B8093E3008091E8005E
:103BE000877F8093E8000E94571B8091E80080FF48
:103BF000FCCF8091E30080688093E30083E01111A3
:103C000001C082E08093AA028BCF8058823008F0F6
:103C100087CF8091AD029091AE028C3D53E0950725
:103C200099F583E08A838AE289834FB7F894DE01AD
:103C3000139620E03EE051E2E32FF0E0509357006E
:103C4000849120FF03C082958F703F5F8F708A3010
:103C5000C8F0895C90E08D939D932F5F243161F7CC
:103C60004FBF8091E800877F8093E8006AE270E0B0
:103C7000CE0101960E946E1A8091E8008B778093A6
:103C8000E8004ECF805DE6CF6091AF027091B00248
:103C9000AE014F5F5F4F0E94A8198C01892B09F478
:103CA0003FCF8091E800877F8093E800B801898149
:103CB0009A810E94C81AE0CF803809F031CF8091F4
:103CC000E800877F8093E8008091A6028093F1004E
:103CD0001DCF811125CF9091AD02923008F020CFF9
:103CE0008091E800877F8093E8009093A6020E946D
:103CF000571B8091A602811531F084E08093AA02BF
:103D00000E9493180DCF8091E30087FDF6CF81E0EC
:103D1000F5CF0895CF938091AA02811599F08091F3
:103D2000E900C091EC008F70C795CC27C795C82BD0
:103D30001092E9008091E80083FD0E94411DCF7040
:103D4000C093E900CF91089597FB072E16F40094D5
:103D500007D077FD09D00E94F51E07FC05D03EF480
:103D6000909581959F4F0895709561957F4F089527
:103D7000EE0FFF1F0590F491E02D09942F923F92D2
:103D80004F925F926F927F928F929F92AF92BF926B
:103D9000CF92DF92EF92FF920F931F93CF93DF9317
:103DA000CDB7DEB7CA1BDB0B0FB6F894DEBF0FBE74
:103DB000CDBF09942A88398848885F846E847D84C1
:103DC0008C849B84AA84B984C884DF80EE80FD80C3
:103DD0000C811B81AA81B981CE0FD11D0FB6F89439
:103DE000DEBF0FBECDBFED010895AA1BBB1B51E185
:103DF00007C0AA1FBB1FA617B70710F0A61BB70B5B
:103E0000881F991F5A95A9F780959095BC01CD01FF
:103E10000895FB01DC0104C08D910190801921F40B
:103E200041505040C8F7881B990B0895FB01DC01F5
:103E300002C001900D9241505040D8F70895F99971
:103E4000FECF92BD81BDF89A992780B50895A8E16B
:103E5000B0E042E050E00C94631FDC01A40FB51FFA
:103E60004150504048F0CB01840F951F2E910E9485
:103E70003E1F41505040D0F70895262FF999FECFAC
:103E800092BD81BDF89A019700B4021639F01FBAAD
:103E900020BD0FB6F894FA9AF99A0FBE08950396CA
:103EA000272F0E943E1F0E943D1F252F0E943E1F6C
:103EB000242F0C943E1F0196272F0E943E1F0C9426
:103EC0003D1FDC01CB01FC01F999FECF06C0F2BD1C
:103ED000E1BDF89A319600B40D9241505040B8F7C8
:103EE0000895F894FFCFF003F003370437049C04DF
:103EF000B9041F041F04BE043505460546057A11A2
:103F0000EB1182114C115011861154118A11961126
:103F10006011E41164119A1168119E11C3116C11A2
:103F2000A211CA117211A811B01158118E115C1191
:103F300092117611AC11BA11D311E21146117E1112
:103F4000F211911297129A12A012B512B512B5126F
:103F5000B512B512B512B512B512A312A812AC1251
:103F6000B212C312C912CD12EA14F014D914E41417
:103F7000F614FC140215641D8A1D901D8A1D901DE7
:0A3F8000E31D051E901D5C1E691E66
:103F8A002A024A02280850011E0A140100000100F0
:103F9A0017174F18481841183A18E200E900EA00C2
:103FAA00B500B600B700CD008301CC008A019201AA
:103FBA0094012102230224022502260227022A0250
:103FCA00B300B4006F0070009F01CB019F02A002F2
:103FDA00E200E900EA00B500B600B700CD008301AF
:103FEA00CC008A01920194012102230224022502B3
:103FFA00260227022A02B300B4006F0070009F0154
:10400A00CB019F02A0023435F4F5F6F7313332368C
:06401A00C69766949000B9
:00000001FF
